{
  "contractName": "LendingAndBorrowing",
  "abi": [
    {
      "inputs": [
        {
          "internalType": "address",
          "name": "_token",
          "type": "address"
        }
      ],
      "stateMutability": "nonpayable",
      "type": "constructor"
    },
    {
      "anonymous": false,
      "inputs": [
        {
          "indexed": false,
          "internalType": "address",
          "name": "sender",
          "type": "address"
        },
        {
          "indexed": false,
          "internalType": "uint256",
          "name": "amountInDollars",
          "type": "uint256"
        },
        {
          "indexed": false,
          "internalType": "uint256",
          "name": "totalAmountAvailableForBorrowInDollars",
          "type": "uint256"
        },
        {
          "indexed": false,
          "internalType": "bool",
          "name": "userPresent",
          "type": "bool"
        },
        {
          "indexed": false,
          "internalType": "int256",
          "name": "userIndex",
          "type": "int256"
        },
        {
          "indexed": false,
          "internalType": "address[]",
          "name": "borrowers",
          "type": "address[]"
        },
        {
          "indexed": false,
          "internalType": "uint256",
          "name": "currentUserTokenBorrowedAmount",
          "type": "uint256"
        }
      ],
      "name": "Borrow",
      "type": "event"
    },
    {
      "anonymous": false,
      "inputs": [
        {
          "indexed": false,
          "internalType": "address",
          "name": "sender",
          "type": "address"
        },
        {
          "indexed": false,
          "internalType": "uint256",
          "name": "amountInDollars",
          "type": "uint256"
        },
        {
          "indexed": false,
          "internalType": "uint256",
          "name": "totalAmountAvailableForBorrowInDollars",
          "type": "uint256"
        }
      ],
      "name": "BorrowTesting1",
      "type": "event"
    },
    {
      "anonymous": false,
      "inputs": [
        {
          "indexed": false,
          "internalType": "address",
          "name": "sender",
          "type": "address"
        },
        {
          "indexed": false,
          "internalType": "uint256",
          "name": "balance",
          "type": "uint256"
        },
        {
          "indexed": false,
          "internalType": "uint256",
          "name": "amount",
          "type": "uint256"
        }
      ],
      "name": "BorrowTesting2",
      "type": "event"
    },
    {
      "anonymous": false,
      "inputs": [
        {
          "indexed": true,
          "internalType": "address",
          "name": "previousOwner",
          "type": "address"
        },
        {
          "indexed": true,
          "internalType": "address",
          "name": "newOwner",
          "type": "address"
        }
      ],
      "name": "OwnershipTransferred",
      "type": "event"
    },
    {
      "anonymous": false,
      "inputs": [
        {
          "indexed": false,
          "internalType": "address",
          "name": "sender",
          "type": "address"
        },
        {
          "indexed": false,
          "internalType": "int256",
          "name": "index",
          "type": "int256"
        },
        {
          "indexed": false,
          "internalType": "uint256",
          "name": "tokenAmountBorrowed",
          "type": "uint256"
        },
        {
          "indexed": false,
          "internalType": "uint256",
          "name": "totalTokenAmountToCollectFromUser",
          "type": "uint256"
        },
        {
          "indexed": false,
          "internalType": "address[]",
          "name": "borrowers",
          "type": "address[]"
        }
      ],
      "name": "PayDebt",
      "type": "event"
    },
    {
      "anonymous": false,
      "inputs": [
        {
          "indexed": false,
          "internalType": "address",
          "name": "sender",
          "type": "address"
        },
        {
          "indexed": false,
          "internalType": "int256",
          "name": "index",
          "type": "int256"
        }
      ],
      "name": "RepayTesting1",
      "type": "event"
    },
    {
      "anonymous": false,
      "inputs": [
        {
          "indexed": false,
          "internalType": "address",
          "name": "sender",
          "type": "address"
        },
        {
          "indexed": false,
          "internalType": "uint256",
          "name": "tokenBorrowed",
          "type": "uint256"
        }
      ],
      "name": "RepayTesting2",
      "type": "event"
    },
    {
      "anonymous": false,
      "inputs": [
        {
          "indexed": false,
          "internalType": "address",
          "name": "sender",
          "type": "address"
        },
        {
          "indexed": false,
          "internalType": "address[]",
          "name": "lenders",
          "type": "address[]"
        },
        {
          "indexed": false,
          "internalType": "uint256",
          "name": "currentUserTokenLentAmount",
          "type": "uint256"
        }
      ],
      "name": "Supply",
      "type": "event"
    },
    {
      "anonymous": false,
      "inputs": [
        {
          "indexed": false,
          "internalType": "address",
          "name": "sender",
          "type": "address"
        },
        {
          "indexed": false,
          "internalType": "uint256",
          "name": "amount",
          "type": "uint256"
        },
        {
          "indexed": false,
          "internalType": "uint256",
          "name": "tokenToWithdrawInDollars",
          "type": "uint256"
        },
        {
          "indexed": false,
          "internalType": "uint256",
          "name": "availableToWithdraw",
          "type": "uint256"
        },
        {
          "indexed": false,
          "internalType": "uint256",
          "name": "totalAmountLentInDollars",
          "type": "uint256"
        },
        {
          "indexed": false,
          "internalType": "uint256",
          "name": "larTokenToRemove",
          "type": "uint256"
        }
      ],
      "name": "Withdraw",
      "type": "event"
    },
    {
      "anonymous": false,
      "inputs": [
        {
          "indexed": false,
          "internalType": "address",
          "name": "sender",
          "type": "address"
        },
        {
          "indexed": false,
          "internalType": "uint256",
          "name": "tokentoWithdrawInDollars",
          "type": "uint256"
        },
        {
          "indexed": false,
          "internalType": "uint256",
          "name": "availableToWithdraw",
          "type": "uint256"
        }
      ],
      "name": "WithdrawTesting",
      "type": "event"
    },
    {
      "inputs": [
        {
          "internalType": "uint256",
          "name": "",
          "type": "uint256"
        }
      ],
      "name": "borrowers",
      "outputs": [
        {
          "internalType": "address",
          "name": "",
          "type": "address"
        }
      ],
      "stateMutability": "view",
      "type": "function",
      "constant": true
    },
    {
      "inputs": [],
      "name": "larToken",
      "outputs": [
        {
          "internalType": "contract IERC20",
          "name": "",
          "type": "address"
        }
      ],
      "stateMutability": "view",
      "type": "function",
      "constant": true
    },
    {
      "inputs": [
        {
          "internalType": "uint256",
          "name": "",
          "type": "uint256"
        }
      ],
      "name": "lenders",
      "outputs": [
        {
          "internalType": "address",
          "name": "",
          "type": "address"
        }
      ],
      "stateMutability": "view",
      "type": "function",
      "constant": true
    },
    {
      "inputs": [],
      "name": "noOfTokensBorrowed",
      "outputs": [
        {
          "internalType": "uint256",
          "name": "",
          "type": "uint256"
        }
      ],
      "stateMutability": "view",
      "type": "function",
      "constant": true
    },
    {
      "inputs": [],
      "name": "noOfTokensLent",
      "outputs": [
        {
          "internalType": "uint256",
          "name": "",
          "type": "uint256"
        }
      ],
      "stateMutability": "view",
      "type": "function",
      "constant": true
    },
    {
      "inputs": [],
      "name": "owner",
      "outputs": [
        {
          "internalType": "address",
          "name": "",
          "type": "address"
        }
      ],
      "stateMutability": "view",
      "type": "function",
      "constant": true
    },
    {
      "inputs": [],
      "name": "renounceOwnership",
      "outputs": [],
      "stateMutability": "nonpayable",
      "type": "function"
    },
    {
      "inputs": [
        {
          "internalType": "address",
          "name": "",
          "type": "address"
        }
      ],
      "name": "tokenToPriceFeed",
      "outputs": [
        {
          "internalType": "address",
          "name": "",
          "type": "address"
        }
      ],
      "stateMutability": "view",
      "type": "function",
      "constant": true
    },
    {
      "inputs": [
        {
          "internalType": "uint256",
          "name": "",
          "type": "uint256"
        },
        {
          "internalType": "address",
          "name": "",
          "type": "address"
        }
      ],
      "name": "tokensBorrowed",
      "outputs": [
        {
          "internalType": "address",
          "name": "",
          "type": "address"
        }
      ],
      "stateMutability": "view",
      "type": "function",
      "constant": true
    },
    {
      "inputs": [
        {
          "internalType": "address",
          "name": "",
          "type": "address"
        },
        {
          "internalType": "address",
          "name": "",
          "type": "address"
        }
      ],
      "name": "tokensBorrowedAmount",
      "outputs": [
        {
          "internalType": "uint256",
          "name": "",
          "type": "uint256"
        }
      ],
      "stateMutability": "view",
      "type": "function",
      "constant": true
    },
    {
      "inputs": [
        {
          "internalType": "uint256",
          "name": "",
          "type": "uint256"
        }
      ],
      "name": "tokensForBorrowing",
      "outputs": [
        {
          "internalType": "address",
          "name": "tokenAddress",
          "type": "address"
        },
        {
          "internalType": "uint256",
          "name": "LTV",
          "type": "uint256"
        },
        {
          "internalType": "uint256",
          "name": "stableRate",
          "type": "uint256"
        },
        {
          "internalType": "string",
          "name": "name",
          "type": "string"
        }
      ],
      "stateMutability": "view",
      "type": "function",
      "constant": true
    },
    {
      "inputs": [
        {
          "internalType": "uint256",
          "name": "",
          "type": "uint256"
        }
      ],
      "name": "tokensForLending",
      "outputs": [
        {
          "internalType": "address",
          "name": "tokenAddress",
          "type": "address"
        },
        {
          "internalType": "uint256",
          "name": "LTV",
          "type": "uint256"
        },
        {
          "internalType": "uint256",
          "name": "stableRate",
          "type": "uint256"
        },
        {
          "internalType": "string",
          "name": "name",
          "type": "string"
        }
      ],
      "stateMutability": "view",
      "type": "function",
      "constant": true
    },
    {
      "inputs": [
        {
          "internalType": "uint256",
          "name": "",
          "type": "uint256"
        },
        {
          "internalType": "address",
          "name": "",
          "type": "address"
        }
      ],
      "name": "tokensLent",
      "outputs": [
        {
          "internalType": "address",
          "name": "",
          "type": "address"
        }
      ],
      "stateMutability": "view",
      "type": "function",
      "constant": true
    },
    {
      "inputs": [
        {
          "internalType": "address",
          "name": "",
          "type": "address"
        },
        {
          "internalType": "address",
          "name": "",
          "type": "address"
        }
      ],
      "name": "tokensLentAmount",
      "outputs": [
        {
          "internalType": "uint256",
          "name": "",
          "type": "uint256"
        }
      ],
      "stateMutability": "view",
      "type": "function",
      "constant": true
    },
    {
      "inputs": [
        {
          "internalType": "address",
          "name": "newOwner",
          "type": "address"
        }
      ],
      "name": "transferOwnership",
      "outputs": [],
      "stateMutability": "nonpayable",
      "type": "function"
    },
    {
      "inputs": [
        {
          "internalType": "string",
          "name": "name",
          "type": "string"
        },
        {
          "internalType": "address",
          "name": "tokenAddress",
          "type": "address"
        },
        {
          "internalType": "uint256",
          "name": "LTV",
          "type": "uint256"
        },
        {
          "internalType": "uint256",
          "name": "borrowStableRate",
          "type": "uint256"
        }
      ],
      "name": "addTokensForLending",
      "outputs": [],
      "stateMutability": "nonpayable",
      "type": "function"
    },
    {
      "inputs": [
        {
          "internalType": "string",
          "name": "name",
          "type": "string"
        },
        {
          "internalType": "address",
          "name": "tokenAddress",
          "type": "address"
        },
        {
          "internalType": "uint256",
          "name": "LTV",
          "type": "uint256"
        },
        {
          "internalType": "uint256",
          "name": "borrowStableRate",
          "type": "uint256"
        }
      ],
      "name": "addTokensForBorrowing",
      "outputs": [],
      "stateMutability": "nonpayable",
      "type": "function"
    },
    {
      "inputs": [
        {
          "internalType": "address",
          "name": "tokenAddress",
          "type": "address"
        },
        {
          "internalType": "address",
          "name": "tokenToUsdPriceFeed",
          "type": "address"
        }
      ],
      "name": "addTokenToPriceFeedMapping",
      "outputs": [],
      "stateMutability": "nonpayable",
      "type": "function"
    },
    {
      "inputs": [],
      "name": "getLendersArray",
      "outputs": [
        {
          "internalType": "address[]",
          "name": "",
          "type": "address[]"
        }
      ],
      "stateMutability": "view",
      "type": "function",
      "constant": true
    },
    {
      "inputs": [],
      "name": "getBorrowersArray",
      "outputs": [
        {
          "internalType": "address[]",
          "name": "",
          "type": "address[]"
        }
      ],
      "stateMutability": "view",
      "type": "function",
      "constant": true
    },
    {
      "inputs": [
        {
          "internalType": "address",
          "name": "tokenAddress",
          "type": "address"
        },
        {
          "internalType": "uint256",
          "name": "amount",
          "type": "uint256"
        }
      ],
      "name": "lend",
      "outputs": [],
      "stateMutability": "payable",
      "type": "function",
      "payable": true
    },
    {
      "inputs": [
        {
          "internalType": "uint256",
          "name": "amount",
          "type": "uint256"
        },
        {
          "internalType": "address",
          "name": "tokenAddress",
          "type": "address"
        }
      ],
      "name": "borrow",
      "outputs": [],
      "stateMutability": "nonpayable",
      "type": "function"
    },
    {
      "inputs": [
        {
          "internalType": "address",
          "name": "tokenAddress",
          "type": "address"
        },
        {
          "internalType": "uint256",
          "name": "amount",
          "type": "uint256"
        }
      ],
      "name": "payDebt",
      "outputs": [],
      "stateMutability": "nonpayable",
      "type": "function"
    },
    {
      "inputs": [
        {
          "internalType": "address",
          "name": "tokenAddress",
          "type": "address"
        },
        {
          "internalType": "uint256",
          "name": "amount",
          "type": "uint256"
        }
      ],
      "name": "withdraw",
      "outputs": [],
      "stateMutability": "nonpayable",
      "type": "function"
    },
    {
      "inputs": [
        {
          "internalType": "address",
          "name": "user",
          "type": "address"
        }
      ],
      "name": "getTokenAvailableToWithdraw",
      "outputs": [
        {
          "internalType": "uint256",
          "name": "",
          "type": "uint256"
        }
      ],
      "stateMutability": "view",
      "type": "function",
      "constant": true
    },
    {
      "inputs": [
        {
          "internalType": "address",
          "name": "user",
          "type": "address"
        }
      ],
      "name": "getRemainingCollateral",
      "outputs": [
        {
          "internalType": "uint256",
          "name": "",
          "type": "uint256"
        }
      ],
      "stateMutability": "view",
      "type": "function",
      "constant": true
    },
    {
      "inputs": [
        {
          "internalType": "address",
          "name": "user",
          "type": "address"
        }
      ],
      "name": "getTotalAmountBorrowedInDollars",
      "outputs": [
        {
          "internalType": "uint256",
          "name": "",
          "type": "uint256"
        }
      ],
      "stateMutability": "view",
      "type": "function",
      "constant": true
    },
    {
      "inputs": [
        {
          "internalType": "address",
          "name": "user",
          "type": "address"
        }
      ],
      "name": "getTotalAmountLentInDollars",
      "outputs": [
        {
          "internalType": "uint256",
          "name": "",
          "type": "uint256"
        }
      ],
      "stateMutability": "view",
      "type": "function",
      "constant": true
    },
    {
      "inputs": [
        {
          "internalType": "address",
          "name": "tokenAddress",
          "type": "address"
        },
        {
          "internalType": "uint256",
          "name": "tokenBorrowed",
          "type": "uint256"
        }
      ],
      "name": "interest",
      "outputs": [
        {
          "internalType": "uint256",
          "name": "",
          "type": "uint256"
        }
      ],
      "stateMutability": "view",
      "type": "function",
      "constant": true
    },
    {
      "inputs": [
        {
          "internalType": "address",
          "name": "tokenAddress",
          "type": "address"
        }
      ],
      "name": "getTokenFrom",
      "outputs": [
        {
          "components": [
            {
              "internalType": "address",
              "name": "tokenAddress",
              "type": "address"
            },
            {
              "internalType": "uint256",
              "name": "LTV",
              "type": "uint256"
            },
            {
              "internalType": "uint256",
              "name": "stableRate",
              "type": "uint256"
            },
            {
              "internalType": "string",
              "name": "name",
              "type": "string"
            }
          ],
          "internalType": "struct LendingAndBorrowing.Token",
          "name": "",
          "type": "tuple"
        }
      ],
      "stateMutability": "view",
      "type": "function",
      "constant": true
    },
    {
      "inputs": [
        {
          "internalType": "address",
          "name": "user",
          "type": "address"
        }
      ],
      "name": "getUserTotalAmountAvailableForBorrowInDollars",
      "outputs": [
        {
          "internalType": "uint256",
          "name": "",
          "type": "uint256"
        }
      ],
      "stateMutability": "view",
      "type": "function",
      "constant": true
    },
    {
      "inputs": [
        {
          "internalType": "uint256",
          "name": "amount",
          "type": "uint256"
        },
        {
          "internalType": "address",
          "name": "tokenAddress",
          "type": "address"
        }
      ],
      "name": "getAmountInDollars",
      "outputs": [
        {
          "internalType": "uint256",
          "name": "",
          "type": "uint256"
        }
      ],
      "stateMutability": "view",
      "type": "function",
      "constant": true
    },
    {
      "inputs": [
        {
          "internalType": "address",
          "name": "currentUser",
          "type": "address"
        },
        {
          "internalType": "address",
          "name": "tokenAddress",
          "type": "address"
        },
        {
          "internalType": "uint256",
          "name": "noOfTokenslentOrBorrowed",
          "type": "uint256"
        },
        {
          "internalType": "string",
          "name": "_tokensLentOrBorrowed",
          "type": "string"
        }
      ],
      "name": "hasLentOrBorrowedToken",
      "outputs": [
        {
          "internalType": "bool",
          "name": "",
          "type": "bool"
        }
      ],
      "stateMutability": "view",
      "type": "function",
      "constant": true
    },
    {
      "inputs": [
        {
          "internalType": "address",
          "name": "tokenAddres",
          "type": "address"
        }
      ],
      "name": "getTotalTokenSupplied",
      "outputs": [
        {
          "internalType": "uint256",
          "name": "",
          "type": "uint256"
        }
      ],
      "stateMutability": "view",
      "type": "function",
      "constant": true
    },
    {
      "inputs": [
        {
          "internalType": "address",
          "name": "tokenAddress",
          "type": "address"
        }
      ],
      "name": "getTotalTokenBorrowed",
      "outputs": [
        {
          "internalType": "uint256",
          "name": "",
          "type": "uint256"
        }
      ],
      "stateMutability": "view",
      "type": "function",
      "constant": true
    }
  ],
  "bytecode": "0x60806040526000600b556000600c553480156200001b57600080fd5b506040516200617d3803806200617d8339818101604052810190620000419190620001f1565b620000736200005e620000bb640100000000026401000000009004565b620000c3640100000000026401000000009004565b80600a60006101000a81548173ffffffffffffffffffffffffffffffffffffffff021916908373ffffffffffffffffffffffffffffffffffffffff1602179055505062000223565b600033905090565b60008060009054906101000a900473ffffffffffffffffffffffffffffffffffffffff169050816000806101000a81548173ffffffffffffffffffffffffffffffffffffffff021916908373ffffffffffffffffffffffffffffffffffffffff1602179055508173ffffffffffffffffffffffffffffffffffffffff168173ffffffffffffffffffffffffffffffffffffffff167f8be0079c531659141344cd1fd0a4f28419497f9722a3daafe3b4186f6b6457e060405160405180910390a35050565b600080fd5b600073ffffffffffffffffffffffffffffffffffffffff82169050919050565b6000620001b9826200018c565b9050919050565b620001cb81620001ac565b8114620001d757600080fd5b50565b600081519050620001eb81620001c0565b92915050565b6000602082840312156200020a576200020962000187565b5b60006200021a84828501620001da565b91505092915050565b615f4a80620002336000396000f3fe608060405260043610610221576000357c0100000000000000000000000000000000000000000000000000000000900480638cf1806b11610135578063b9f09bb8116100bd578063f3fef3a31161008c578063f3fef3a31461084d578063fb24af7f14610876578063fc757b88146108b3578063fe726f80146108f0578063ff2f44651461091b57610221565b8063b9f09bb814610793578063c4543b67146107be578063cd927409146107e7578063f2fde38b1461082457610221565b8063a7772b9711610104578063a7772b9714610676578063a8b74152146106b3578063aac0bf96146106f0578063ab56ee661461072d578063b3d16f8d1461076a57610221565b80638cf1806b146105c75780638da5cb5b146105f2578063929eea211461061d578063a2fb342d1461065a57610221565b80634b3fd148116101b8578063715018a611610187578063715018a6146104bc57806374fd0ce0146104d35780637924d93f146105105780637b9ec9971461054d5780638078f22c1461058a57610221565b80634b3fd148146103ee5780634fa9f5a414610417578063541d8338146104545780636352b5681461047f57610221565b80631818dd0b116101f45780631818dd0b1461031d57806327e8e184146103465780633c9d509314610383578063447007fd146103ae57610221565b806306254c6a1461022657806308ae7fc21461026357806311f4f5d3146102a35780631419f093146102e0575b600080fd5b34801561023257600080fd5b5061024d6004803603810190610248919061493d565b610944565b60405161025a9190614983565b60405180910390f35b34801561026f57600080fd5b5061028a600480360381019061028591906149ca565b610a4f565b60405161029a9493929190614a96565b60405180910390f35b3480156102af57600080fd5b506102ca60048036038101906102c59190614ae2565b610b37565b6040516102d79190614983565b60405180910390f35b3480156102ec57600080fd5b506103076004803603810190610302919061493d565b610b6c565b6040516103149190614983565b60405180910390f35b34801561032957600080fd5b50610344600480360381019061033f9190614ae2565b610ce1565b005b34801561035257600080fd5b5061036d60048036038101906103689190614b22565b611157565b60405161037a9190614983565b60405180910390f35b34801561038f57600080fd5b5061039861117c565b6040516103a59190614c20565b60405180910390f35b3480156103ba57600080fd5b506103d560048036038101906103d091906149ca565b61120a565b6040516103e59493929190614a96565b60405180910390f35b3480156103fa57600080fd5b5061041560048036038101906104109190614c42565b6112f2565b005b34801561042357600080fd5b5061043e60048036038101906104399190614db7565b611a65565b60405161044b9190614e55565b60405180910390f35b34801561046057600080fd5b50610469611cd0565b6040516104769190614983565b60405180910390f35b34801561048b57600080fd5b506104a660048036038101906104a1919061493d565b611cd6565b6040516104b39190614983565b60405180910390f35b3480156104c857600080fd5b506104d1611d33565b005b3480156104df57600080fd5b506104fa60048036038101906104f59190614c42565b611d47565b6040516105079190614e70565b60405180910390f35b34801561051c57600080fd5b50610537600480360381019061053291906149ca565b611d89565b6040516105449190614e70565b60405180910390f35b34801561055957600080fd5b50610574600480360381019061056f919061493d565b611dc8565b6040516105819190614983565b60405180910390f35b34801561059657600080fd5b506105b160048036038101906105ac919061493d565b6121d6565b6040516105be9190614e70565b60405180910390f35b3480156105d357600080fd5b506105dc612209565b6040516105e99190614c20565b60405180910390f35b3480156105fe57600080fd5b50610607612297565b6040516106149190614e70565b60405180910390f35b34801561062957600080fd5b50610644600480360381019061063f91906149ca565b6122c0565b6040516106519190614e70565b60405180910390f35b610674600480360381019061066f9190614ae2565b6122ff565b005b34801561068257600080fd5b5061069d6004803603810190610698919061493d565b6129c7565b6040516106aa9190614983565b60405180910390f35b3480156106bf57600080fd5b506106da60048036038101906106d59190614b22565b612c1c565b6040516106e79190614983565b60405180910390f35b3480156106fc57600080fd5b506107176004803603810190610712919061493d565b612c41565b6040516107249190614983565b60405180910390f35b34801561073957600080fd5b50610754600480360381019061074f919061493d565b612de0565b6040516107619190614983565b60405180910390f35b34801561077657600080fd5b50610791600480360381019061078c9190614b22565b612eeb565b005b34801561079f57600080fd5b506107a8612f75565b6040516107b59190614983565b60405180910390f35b3480156107ca57600080fd5b506107e560048036038101906107e09190614e8b565b612f7b565b005b3480156107f357600080fd5b5061080e60048036038101906108099190614c42565b6131c6565b60405161081b9190614e70565b60405180910390f35b34801561083057600080fd5b5061084b6004803603810190610846919061493d565b613208565b005b34801561085957600080fd5b50610874600480360381019061086f9190614ae2565b61328b565b005b34801561088257600080fd5b5061089d60048036038101906108989190614c42565b613975565b6040516108aa9190614983565b60405180910390f35b3480156108bf57600080fd5b506108da60048036038101906108d5919061493d565b613b24565b6040516108e79190614fca565b60405180910390f35b3480156108fc57600080fd5b50610905613d09565b604051610912919061504b565b60405180910390f35b34801561092757600080fd5b50610942600480360381019061093d9190614e8b565b613d2f565b005b6000806000905060006001805490501115610a465760005b600180549050811015610a4457600360008573ffffffffffffffffffffffffffffffffffffffff1673ffffffffffffffffffffffffffffffffffffffff1681526020019081526020016000206000600183815481106109be576109bd615066565b5b9060005260206000200160009054906101000a900473ffffffffffffffffffffffffffffffffffffffff1673ffffffffffffffffffffffffffffffffffffffff1673ffffffffffffffffffffffffffffffffffffffff1681526020019081526020016000205482610a2f91906150c4565b91508080610a3c906150f8565b91505061095c565b505b80915050919050565b60088181548110610a5f57600080fd5b90600052602060002090600402016000915090508060000160009054906101000a900473ffffffffffffffffffffffffffffffffffffffff1690806001015490806002015490806003018054610ab49061516f565b80601f0160208091040260200160405190810160405280929190818152602001828054610ae09061516f565b8015610b2d5780601f10610b0257610100808354040283529160200191610b2d565b820191906000526020600020905b815481529060010190602001808311610b1057829003601f168201915b5050505050905084565b6000670de0b6b3a7640000610b4b84613b24565b6040015183610b5a91906151a0565b610b649190615229565b905092915050565b6000806000905060005b600c54811015610cd75760006006600083815260200190815260200160002060008673ffffffffffffffffffffffffffffffffffffffff1673ffffffffffffffffffffffffffffffffffffffff16815260200190815260200160002060009054906101000a900473ffffffffffffffffffffffffffffffffffffffff169050600073ffffffffffffffffffffffffffffffffffffffff168173ffffffffffffffffffffffffffffffffffffffff1614610cc3576000610cb1600460008473ffffffffffffffffffffffffffffffffffffffff1673ffffffffffffffffffffffffffffffffffffffff16815260200190815260200160002060008873ffffffffffffffffffffffffffffffffffffffff1673ffffffffffffffffffffffffffffffffffffffff1681526020019081526020016000205483613975565b90508084610cbf91906150c4565b9350505b508080610ccf906150f8565b915050610b76565b5080915050919050565b60008111610cee57600080fd5b6000610d9f6002805480602002602001604051908101604052809291908181526020018280548015610d7557602002820191906000526020600020905b8160009054906101000a900473ffffffffffffffffffffffffffffffffffffffff1673ffffffffffffffffffffffffffffffffffffffff1681526020019060010190808311610d2b575b50505050503373ffffffffffffffffffffffffffffffffffffffff16613f7a90919063ffffffff16565b90507ffd17bd4279d0fe7ef2675b6b6e8966ee4b2dbdc635a963c22487d11f2252fd263382604051610dd2929190615273565b60405180910390a16000811215610de857600080fd5b6000600460008573ffffffffffffffffffffffffffffffffffffffff1673ffffffffffffffffffffffffffffffffffffffff16815260200190815260200160002060003373ffffffffffffffffffffffffffffffffffffffff1673ffffffffffffffffffffffffffffffffffffffff1681526020019081526020016000205490507f39c49093e2def1aebe4cebf2fbebfd37c089d9231d17ecd15319230e499d73583382604051610e9a92919061529c565b60405180910390a160008111610eaf57600080fd5b60008490508073ffffffffffffffffffffffffffffffffffffffff166323b872dd3330610edc8987610b37565b88610ee791906150c4565b6040518463ffffffff167c0100000000000000000000000000000000000000000000000000000000028152600401610f21939291906152c5565b6020604051808303816000875af1158015610f40573d6000803e3d6000fd5b505050506040513d601f19601f82011682018060405250810190610f649190615328565b5083600460008773ffffffffffffffffffffffffffffffffffffffff1673ffffffffffffffffffffffffffffffffffffffff16815260200190815260200160002060003373ffffffffffffffffffffffffffffffffffffffff1673ffffffffffffffffffffffffffffffffffffffff1681526020019081526020016000206000828254610ff19190615355565b92505081905550600061100333610b6c565b036110fc576002600160028054905061101c9190615355565b8154811061102d5761102c615066565b5b9060005260206000200160009054906101000a900473ffffffffffffffffffffffffffffffffffffffff166002848154811061106c5761106b615066565b5b9060005260206000200160006101000a81548173ffffffffffffffffffffffffffffffffffffffff021916908373ffffffffffffffffffffffffffffffffffffffff16021790555060028054806110c6576110c5615389565b5b6001900381819060005260206000200160006101000a81549073ffffffffffffffffffffffffffffffffffffffff021916905590555b7ff17f5805b2095d17ffe834aff3fc2eeff114bfbc250e98f248783f8d34d4004233848461112a8987610b37565b8861113591906150c4565b60026040516111489594939291906154a4565b60405180910390a15050505050565b6003602052816000526040600020602052806000526040600020600091509150505481565b6060600180548060200260200160405190810160405280929190818152602001828054801561120057602002820191906000526020600020905b8160009054906101000a900473ffffffffffffffffffffffffffffffffffffffff1673ffffffffffffffffffffffffffffffffffffffff16815260200190600101908083116111b6575b5050505050905090565b6009818154811061121a57600080fd5b90600052602060002090600402016000915090508060000160009054906101000a900473ffffffffffffffffffffffffffffffffffffffff169080600101549080600201549080600301805461126f9061516f565b80601f016020809104026020016040519081016040528092919081815260200182805461129b9061516f565b80156112e85780601f106112bd576101008083540402835291602001916112e8565b820191906000526020600020905b8154815290600101906020018083116112cb57829003601f168201915b5050505050905084565b61144f816009805480602002602001604051908101604052809291908181526020016000905b8282101561144657838290600052602060002090600402016040518060800160405290816000820160009054906101000a900473ffffffffffffffffffffffffffffffffffffffff1673ffffffffffffffffffffffffffffffffffffffff1673ffffffffffffffffffffffffffffffffffffffff16815260200160018201548152602001600282015481526020016003820180546113b59061516f565b80601f01602080910402602001604051908101604052809291908181526020018280546113e19061516f565b801561142e5780601f106114035761010080835404028352916020019161142e565b820191906000526020600020905b81548152906001019060200180831161141157829003601f168201915b50505050508152505081526020019060010190611318565b5050505061401f565b61145857600080fd5b6000821161146557600080fd5b600061147033611dc8565b9050600061147e8484613975565b90507f9855d8af0b8c5c7af990f62dff1fc3aeaded940bb30b8de4b0015eab8bcc7dde3382846040516114b3939291906154fe565b60405180910390a1818111156114c857600080fd5b60008390507f1533b7359743566892d312c1ebe1047dfae70511d2db64634f80e3e8e2147354338273ffffffffffffffffffffffffffffffffffffffff166370a08231306040518263ffffffff167c01000000000000000000000000000000000000000000000000000000000281526004016115449190614e70565b602060405180830381865afa158015611561573d6000803e3d6000fd5b505050506040513d601f19601f82011682018060405250810190611585919061554a565b87604051611595939291906154fe565b60405180910390a1848173ffffffffffffffffffffffffffffffffffffffff166370a08231306040518263ffffffff167c01000000000000000000000000000000000000000000000000000000000281526004016115f39190614e70565b602060405180830381865afa158015611610573d6000803e3d6000fd5b505050506040513d601f19601f82011682018060405250810190611634919061554a565b1015611675576040517f08c379a000000000000000000000000000000000000000000000000000000000815260040161166c906155c3565b60405180910390fd5b8073ffffffffffffffffffffffffffffffffffffffff1663a9059cbb33876040518363ffffffff167c01000000000000000000000000000000000000000000000000000000000281526004016116cc92919061529c565b6020604051808303816000875af11580156116eb573d6000803e3d6000fd5b505050506040513d601f19601f8201168201806040525081019061170f9190615328565b506000806117c2600280548060200260200160405190810160405280929190818152602001828054801561179857602002820191906000526020600020905b8160009054906101000a900473ffffffffffffffffffffffffffffffffffffffff1673ffffffffffffffffffffffffffffffffffffffff168152602001906001019080831161174e575b50505050503373ffffffffffffffffffffffffffffffffffffffff166140b190919063ffffffff16565b9150915081156118125761180d8688836040518060400160405280600981526020017f626f72726f776572730000000000000000000000000000000000000000000000815250614168565b61199c565b6002339080600181540180825580915050600190039060005260206000200160009091909190916101000a81548173ffffffffffffffffffffffffffffffffffffffff021916908373ffffffffffffffffffffffffffffffffffffffff16021790555086600460008873ffffffffffffffffffffffffffffffffffffffff1673ffffffffffffffffffffffffffffffffffffffff16815260200190815260200160002060003373ffffffffffffffffffffffffffffffffffffffff1673ffffffffffffffffffffffffffffffffffffffff168152602001908152602001600020819055508560066000600c600081548092919061190e906150f8565b91905055815260200190815260200160002060003373ffffffffffffffffffffffffffffffffffffffff1673ffffffffffffffffffffffffffffffffffffffff16815260200190815260200160002060006101000a81548173ffffffffffffffffffffffffffffffffffffffff021916908373ffffffffffffffffffffffffffffffffffffffff1602179055505b7f699548a5535b752f15032eb2be1672b2e5e62ddc5d461d4edb5a9321d7cbd25233858785856002600460008e73ffffffffffffffffffffffffffffffffffffffff1673ffffffffffffffffffffffffffffffffffffffff16815260200190815260200160002060003373ffffffffffffffffffffffffffffffffffffffff1673ffffffffffffffffffffffffffffffffffffffff16815260200190815260200160002054604051611a5497969594939291906155e3565b60405180910390a150505050505050565b600080831115611cc357604051602001611a7e906156b0565b6040516020818303038152906040528051906020012082604051602001611aa591906156f6565b6040516020818303038152906040528051906020012003611b9a5760005b600b54811015611b945760006005600083815260200190815260200160002060008873ffffffffffffffffffffffffffffffffffffffff1673ffffffffffffffffffffffffffffffffffffffff16815260200190815260200160002060009054906101000a900473ffffffffffffffffffffffffffffffffffffffff1690508573ffffffffffffffffffffffffffffffffffffffff168173ffffffffffffffffffffffffffffffffffffffff1603611b8057600192505050611cc8565b508080611b8c906150f8565b915050611ac3565b50611cc2565b604051602001611ba990615759565b6040516020818303038152906040528051906020012082604051602001611bd091906156f6565b6040516020818303038152906040528051906020012003611cc15760005b600c54811015611cbf5760006006600083815260200190815260200160002060008873ffffffffffffffffffffffffffffffffffffffff1673ffffffffffffffffffffffffffffffffffffffff16815260200190815260200160002060009054906101000a900473ffffffffffffffffffffffffffffffffffffffff1690508573ffffffffffffffffffffffffffffffffffffffff168173ffffffffffffffffffffffffffffffffffffffff1603611cab57600192505050611cc8565b508080611cb7906150f8565b915050611bee565b505b5b5b600090505b949350505050565b600c5481565b600080611ce283610b6c565b9050600080821115611cfe57611cf784612c41565b9050611d0a565b611d07846129c7565b90505b81811015611d1d57600092505050611d2e565b8181611d299190615355565b925050505b919050565b611d3b6146ad565b611d45600061472b565b565b60066020528160005260406000206020528060005260406000206000915091509054906101000a900473ffffffffffffffffffffffffffffffffffffffff1681565b60028181548110611d9957600080fd5b906000526020600020016000915054906101000a900473ffffffffffffffffffffffffffffffffffffffff1681565b600080600090506000805b600180549050811015611fe9578473ffffffffffffffffffffffffffffffffffffffff1660018281548110611e0b57611e0a615066565b5b9060005260206000200160009054906101000a900473ffffffffffffffffffffffffffffffffffffffff1673ffffffffffffffffffffffffffffffffffffffff1603611fd65760005b600880549050811015611fd457670de0b6b3a764000060088281548110611e7e57611e7d615066565b5b906000526020600020906004020160010154611fa06003600060088681548110611eab57611eaa615066565b5b906000526020600020906004020160000160009054906101000a900473ffffffffffffffffffffffffffffffffffffffff1673ffffffffffffffffffffffffffffffffffffffff1673ffffffffffffffffffffffffffffffffffffffff16815260200190815260200160002060008a73ffffffffffffffffffffffffffffffffffffffff1673ffffffffffffffffffffffffffffffffffffffff1681526020019081526020016000205460088581548110611f6957611f68615066565b5b906000526020600020906004020160000160009054906101000a900473ffffffffffffffffffffffffffffffffffffffff16613975565b611faa91906151a0565b611fb49190615229565b84611fbf91906150c4565b93508080611fcc906150f8565b915050611e54565b505b8080611fe1906150f8565b915050611dd3565b5060005b6002805490508110156121c0578473ffffffffffffffffffffffffffffffffffffffff166002828154811061202557612024615066565b5b9060005260206000200160009054906101000a900473ffffffffffffffffffffffffffffffffffffffff1673ffffffffffffffffffffffffffffffffffffffff16036121ad5760005b6009805490508110156121ab5761218b600460006009848154811061209657612095615066565b5b906000526020600020906004020160000160009054906101000a900473ffffffffffffffffffffffffffffffffffffffff1673ffffffffffffffffffffffffffffffffffffffff1673ffffffffffffffffffffffffffffffffffffffff16815260200190815260200160002060008873ffffffffffffffffffffffffffffffffffffffff1673ffffffffffffffffffffffffffffffffffffffff168152602001908152602001600020546009838154811061215457612153615066565b5b906000526020600020906004020160000160009054906101000a900473ffffffffffffffffffffffffffffffffffffffff16613975565b8361219691906150c4565b925080806121a3906150f8565b91505061206e565b505b80806121b8906150f8565b915050611fed565b5080826121cd9190615355565b92505050919050565b60076020528060005260406000206000915054906101000a900473ffffffffffffffffffffffffffffffffffffffff1681565b6060600280548060200260200160405190810160405280929190818152602001828054801561228d57602002820191906000526020600020905b8160009054906101000a900473ffffffffffffffffffffffffffffffffffffffff1673ffffffffffffffffffffffffffffffffffffffff1681526020019060010190808311612243575b5050505050905090565b60008060009054906101000a900473ffffffffffffffffffffffffffffffffffffffff16905090565b600181815481106122d057600080fd5b906000526020600020016000915054906101000a900473ffffffffffffffffffffffffffffffffffffffff1681565b61245c826008805480602002602001604051908101604052809291908181526020016000905b8282101561245357838290600052602060002090600402016040518060800160405290816000820160009054906101000a900473ffffffffffffffffffffffffffffffffffffffff1673ffffffffffffffffffffffffffffffffffffffff1673ffffffffffffffffffffffffffffffffffffffff16815260200160018201548152602001600282015481526020016003820180546123c29061516f565b80601f01602080910402602001604051908101604052809291908181526020018280546123ee9061516f565b801561243b5780601f106124105761010080835404028352916020019161243b565b820191906000526020600020905b81548152906001019060200180831161241e57829003601f168201915b50505050508152505081526020019060010190612325565b5050505061401f565b61246557600080fd5b6000811161247257600080fd5b6000829050818173ffffffffffffffffffffffffffffffffffffffff166370a08231336040518263ffffffff167c01000000000000000000000000000000000000000000000000000000000281526004016124cd9190614e70565b602060405180830381865afa1580156124ea573d6000803e3d6000fd5b505050506040513d601f19601f8201168201806040525081019061250e919061554a565b101561251957600080fd5b8073ffffffffffffffffffffffffffffffffffffffff166323b872dd3330856040518463ffffffff167c0100000000000000000000000000000000000000000000000000000000028152600401612572939291906152c5565b6020604051808303816000875af1158015612591573d6000803e3d6000fd5b505050506040513d601f19601f820116820180604052508101906125b59190615328565b50600080612668600180548060200260200160405190810160405280929190818152602001828054801561263e57602002820191906000526020600020905b8160009054906101000a900473ffffffffffffffffffffffffffffffffffffffff1673ffffffffffffffffffffffffffffffffffffffff16815260200190600101908083116125f4575b50505050503373ffffffffffffffffffffffffffffffffffffffff166140b190919063ffffffff16565b9150915081156126b8576126b38585836040518060400160405280600781526020017f6c656e6465727300000000000000000000000000000000000000000000000000815250614168565b612842565b6001339080600181540180825580915050600190039060005260206000200160009091909190916101000a81548173ffffffffffffffffffffffffffffffffffffffff021916908373ffffffffffffffffffffffffffffffffffffffff16021790555083600360008773ffffffffffffffffffffffffffffffffffffffff1673ffffffffffffffffffffffffffffffffffffffff16815260200190815260200160002060003373ffffffffffffffffffffffffffffffffffffffff1673ffffffffffffffffffffffffffffffffffffffff168152602001908152602001600020819055508460056000600b60008154809291906127b4906150f8565b91905055815260200190815260200160002060003373ffffffffffffffffffffffffffffffffffffffff1673ffffffffffffffffffffffffffffffffffffffff16815260200190815260200160002060006101000a81548173ffffffffffffffffffffffffffffffffffffffff021916908373ffffffffffffffffffffffffffffffffffffffff1602179055505b600a60009054906101000a900473ffffffffffffffffffffffffffffffffffffffff1673ffffffffffffffffffffffffffffffffffffffff1663a9059cbb3361288b8789613975565b6040518363ffffffff167c01000000000000000000000000000000000000000000000000000000000281526004016128c492919061529c565b6020604051808303816000875af11580156128e3573d6000803e3d6000fd5b505050506040513d601f19601f820116820180604052508101906129079190615328565b507fbb33ffe04605a99e7885b3013bcc050161d1906b3611f09fed70a0c61e1f03de336001600360008973ffffffffffffffffffffffffffffffffffffffff1673ffffffffffffffffffffffffffffffffffffffff16815260200190815260200160002060003373ffffffffffffffffffffffffffffffffffffffff1673ffffffffffffffffffffffffffffffffffffffff168152602001908152602001600020546040516129b89392919061576e565b60405180910390a15050505050565b6000806000905060005b600b54811015612c1257600073ffffffffffffffffffffffffffffffffffffffff166005600083815260200190815260200160002060008673ffffffffffffffffffffffffffffffffffffffff1673ffffffffffffffffffffffffffffffffffffffff16815260200190815260200160002060009054906101000a900473ffffffffffffffffffffffffffffffffffffffff1673ffffffffffffffffffffffffffffffffffffffff1614612bff576000600360006005600085815260200190815260200160002060008873ffffffffffffffffffffffffffffffffffffffff1673ffffffffffffffffffffffffffffffffffffffff16815260200190815260200160002060009054906101000a900473ffffffffffffffffffffffffffffffffffffffff1673ffffffffffffffffffffffffffffffffffffffff1673ffffffffffffffffffffffffffffffffffffffff16815260200190815260200160002060008673ffffffffffffffffffffffffffffffffffffffff1673ffffffffffffffffffffffffffffffffffffffff1681526020019081526020016000205490506000612bec826005600086815260200190815260200160002060008973ffffffffffffffffffffffffffffffffffffffff1673ffffffffffffffffffffffffffffffffffffffff16815260200190815260200160002060009054906101000a900473ffffffffffffffffffffffffffffffffffffffff16613975565b90508084612bfa91906150c4565b935050505b8080612c0a906150f8565b9150506129d1565b5080915050919050565b6004602052816000526040600020602052806000526040600020600091509150505481565b6000806000905060005b600b54811015612dd65760006005600083815260200190815260200160002060008673ffffffffffffffffffffffffffffffffffffffff1673ffffffffffffffffffffffffffffffffffffffff16815260200190815260200160002060009054906101000a900473ffffffffffffffffffffffffffffffffffffffff169050600073ffffffffffffffffffffffffffffffffffffffff168173ffffffffffffffffffffffffffffffffffffffff1614612dc2576000612d86600360008473ffffffffffffffffffffffffffffffffffffffff1673ffffffffffffffffffffffffffffffffffffffff16815260200190815260200160002060008873ffffffffffffffffffffffffffffffffffffffff1673ffffffffffffffffffffffffffffffffffffffff1681526020019081526020016000205483613975565b9050670de0b6b3a7640000612d9a83613b24565b6020015182612da991906151a0565b612db39190615229565b84612dbe91906150c4565b9350505b508080612dce906150f8565b915050612c4b565b5080915050919050565b6000806000905060006002805490501115612ee25760005b600280549050811015612ee057600460008573ffffffffffffffffffffffffffffffffffffffff1673ffffffffffffffffffffffffffffffffffffffff168152602001908152602001600020600060028381548110612e5a57612e59615066565b5b9060005260206000200160009054906101000a900473ffffffffffffffffffffffffffffffffffffffff1673ffffffffffffffffffffffffffffffffffffffff1673ffffffffffffffffffffffffffffffffffffffff1681526020019081526020016000205482612ecb91906150c4565b91508080612ed8906150f8565b915050612df8565b505b80915050919050565b612ef36146ad565b80600760008473ffffffffffffffffffffffffffffffffffffffff1673ffffffffffffffffffffffffffffffffffffffff16815260200190815260200160002060006101000a81548173ffffffffffffffffffffffffffffffffffffffff021916908373ffffffffffffffffffffffffffffffffffffffff1602179055505050565b600b5481565b612f836146ad565b600060405180608001604052808573ffffffffffffffffffffffffffffffffffffffff16815260200184815260200183815260200186815250905061311b816008805480602002602001604051908101604052809291908181526020016000905b8282101561311257838290600052602060002090600402016040518060800160405290816000820160009054906101000a900473ffffffffffffffffffffffffffffffffffffffff1673ffffffffffffffffffffffffffffffffffffffff1673ffffffffffffffffffffffffffffffffffffffff16815260200160018201548152602001600282015481526020016003820180546130819061516f565b80601f01602080910402602001604051908101604052809291908181526020018280546130ad9061516f565b80156130fa5780601f106130cf576101008083540402835291602001916130fa565b820191906000526020600020905b8154815290600101906020018083116130dd57829003601f168201915b50505050508152505081526020019060010190612fe4565b505050506147ef565b6131bf57600881908060018154018082558091505060019003906000526020600020906004020160009091909190915060008201518160000160006101000a81548173ffffffffffffffffffffffffffffffffffffffff021916908373ffffffffffffffffffffffffffffffffffffffff160217905550602082015181600101556040820151816002015560608201518160030190816131bb9190615954565b5050505b5050505050565b60056020528160005260406000206020528060005260406000206000915091509054906101000a900473ffffffffffffffffffffffffffffffffffffffff1681565b6132106146ad565b600073ffffffffffffffffffffffffffffffffffffffff168173ffffffffffffffffffffffffffffffffffffffff160361327f576040517f08c379a000000000000000000000000000000000000000000000000000000000815260040161327690615a98565b60405180910390fd5b6132888161472b565b50565b6000811161329857600080fd5b6000613349600180548060200260200160405190810160405280929190818152602001828054801561331f57602002820191906000526020600020905b8160009054906101000a900473ffffffffffffffffffffffffffffffffffffffff1673ffffffffffffffffffffffffffffffffffffffff16815260200190600101908083116132d5575b50505050503373ffffffffffffffffffffffffffffffffffffffff16613f7a90919063ffffffff16565b121561335457600080fd5b600082905060006133658385613975565b9050600061337233611cd6565b9050600061337f86610944565b9050600061338c87612de0565b9050808261339a9190615355565b8611156133a657600080fd5b7fa3f1253c66c67d41b745dd1caff0e52d3fb3aefdf8dd746b6af0c96d1f29e3bc3385856040516133d9939291906154fe565b60405180910390a1828411156133ee57600080fd5b60006133fa8789613975565b90506000600a60009054906101000a900473ffffffffffffffffffffffffffffffffffffffff1673ffffffffffffffffffffffffffffffffffffffff166370a08231336040518263ffffffff167c01000000000000000000000000000000000000000000000000000000000281526004016134759190614e70565b602060405180830381865afa158015613492573d6000803e3d6000fd5b505050506040513d601f19601f820116820180604052508101906134b6919061554a565b905080821161358357600a60009054906101000a900473ffffffffffffffffffffffffffffffffffffffff1673ffffffffffffffffffffffffffffffffffffffff166323b872dd3330856040518463ffffffff167c010000000000000000000000000000000000000000000000000000000002815260040161353a939291906152c5565b6020604051808303816000875af1158015613559573d6000803e3d6000fd5b505050506040513d601f19601f8201168201806040525081019061357d9190615328565b50613643565b600a60009054906101000a900473ffffffffffffffffffffffffffffffffffffffff1673ffffffffffffffffffffffffffffffffffffffff166323b872dd3330846040518463ffffffff167c01000000000000000000000000000000000000000000000000000000000281526004016135fe939291906152c5565b6020604051808303816000875af115801561361d573d6000803e3d6000fd5b505050506040513d601f19601f820116820180604052508101906136419190615328565b505b8673ffffffffffffffffffffffffffffffffffffffff1663a9059cbb338a6040518363ffffffff167c010000000000000000000000000000000000000000000000000000000002815260040161369a92919061529c565b6020604051808303816000875af11580156136b9573d6000803e3d6000fd5b505050506040513d601f19601f820116820180604052508101906136dd9190615328565b5087600360008b73ffffffffffffffffffffffffffffffffffffffff1673ffffffffffffffffffffffffffffffffffffffff16815260200190815260200160002060003373ffffffffffffffffffffffffffffffffffffffff1673ffffffffffffffffffffffffffffffffffffffff168152602001908152602001600020600082825461376a9190615355565b925050819055507fb7ee00edafdb5db3a1b52a5789a6b562eb48268842d113dbfe860b6f86e5f5953389888861379f336129c7565b876040516137b296959493929190615ab8565b60405180910390a160006137c5336129c7565b1161396a5760018080805490506137dc9190615355565b815481106137ed576137ec615066565b5b9060005260206000200160009054906101000a900473ffffffffffffffffffffffffffffffffffffffff1660016138c9600180548060200260200160405190810160405280929190818152602001828054801561389f57602002820191906000526020600020905b8160009054906101000a900473ffffffffffffffffffffffffffffffffffffffff1673ffffffffffffffffffffffffffffffffffffffff1681526020019060010190808311613855575b50505050503373ffffffffffffffffffffffffffffffffffffffff16613f7a90919063ffffffff16565b815481106138da576138d9615066565b5b9060005260206000200160006101000a81548173ffffffffffffffffffffffffffffffffffffffff021916908373ffffffffffffffffffffffffffffffffffffffff160217905550600180548061393457613933615389565b5b6001900381819060005260206000200160006101000a81549073ffffffffffffffffffffffffffffffffffffffff021916905590555b505050505050505050565b600080600760008473ffffffffffffffffffffffffffffffffffffffff1673ffffffffffffffffffffffffffffffffffffffff16815260200190815260200160002060009054906101000a900473ffffffffffffffffffffffffffffffffffffffff16905060008173ffffffffffffffffffffffffffffffffffffffff1663feaf968c6040518163ffffffff167c010000000000000000000000000000000000000000000000000000000002815260040160a060405180830381865afa158015613a43573d6000803e3d6000fd5b505050506040513d601f19601f82011682018060405250810190613a679190615b87565b5050509150508173ffffffffffffffffffffffffffffffffffffffff1663313ce5676040518163ffffffff167c0100000000000000000000000000000000000000000000000000000000028152600401602060405180830381865afa158015613ad4573d6000803e3d6000fd5b505050506040513d601f19601f82011682018060405250810190613af89190615c3b565b600a613b049190615d9b565b8186613b1091906151a0565b613b1a9190615229565b9250505092915050565b613b2c61488d565b613b3461488d565b60005b600980549050811015613cff578373ffffffffffffffffffffffffffffffffffffffff1660098281548110613b6f57613b6e615066565b5b906000526020600020906004020160000160009054906101000a900473ffffffffffffffffffffffffffffffffffffffff1673ffffffffffffffffffffffffffffffffffffffff1603613cec5760098181548110613bd057613bcf615066565b5b90600052602060002090600402016040518060800160405290816000820160009054906101000a900473ffffffffffffffffffffffffffffffffffffffff1673ffffffffffffffffffffffffffffffffffffffff1673ffffffffffffffffffffffffffffffffffffffff1681526020016001820154815260200160028201548152602001600382018054613c639061516f565b80601f0160208091040260200160405190810160405280929190818152602001828054613c8f9061516f565b8015613cdc5780601f10613cb157610100808354040283529160200191613cdc565b820191906000526020600020905b815481529060010190602001808311613cbf57829003601f168201915b5050505050815250509150613cff565b8080613cf7906150f8565b915050613b37565b5080915050919050565b600a60009054906101000a900473ffffffffffffffffffffffffffffffffffffffff1681565b613d376146ad565b600060405180608001604052808573ffffffffffffffffffffffffffffffffffffffff168152602001848152602001838152602001868152509050613ecf816009805480602002602001604051908101604052809291908181526020016000905b82821015613ec657838290600052602060002090600402016040518060800160405290816000820160009054906101000a900473ffffffffffffffffffffffffffffffffffffffff1673ffffffffffffffffffffffffffffffffffffffff1673ffffffffffffffffffffffffffffffffffffffff1681526020016001820154815260200160028201548152602001600382018054613e359061516f565b80601f0160208091040260200160405190810160405280929190818152602001828054613e619061516f565b8015613eae5780601f10613e8357610100808354040283529160200191613eae565b820191906000526020600020905b815481529060010190602001808311613e9157829003601f168201915b50505050508152505081526020019060010190613d98565b505050506147ef565b613f7357600981908060018154018082558091505060019003906000526020600020906004020160009091909190915060008201518160000160006101000a81548173ffffffffffffffffffffffffffffffffffffffff021916908373ffffffffffffffffffffffffffffffffffffffff16021790555060208201518160010155604082015181600201556060820151816003019081613f6f9190615954565b5050505b5050505050565b600080600090505b8251811015613ff457828181518110613f9e57613f9d615066565b5b602002602001015173ffffffffffffffffffffffffffffffffffffffff168473ffffffffffffffffffffffffffffffffffffffff1603613fe15780915050614019565b8080613fec906150f8565b915050613f82565b507fffffffffffffffffffffffffffffffffffffffffffffffffffffffffffffffff90505b92915050565b600080825111156140a65760005b82518110156140a4578373ffffffffffffffffffffffffffffffffffffffff168382815181106140605761405f615066565b5b60200260200101516000015173ffffffffffffffffffffffffffffffffffffffff16036140915760019150506140ab565b808061409c906150f8565b91505061402d565b505b600090505b92915050565b6000806000835111156141395760005b8351811015614137578381815181106140dd576140dc615066565b5b602002602001015173ffffffffffffffffffffffffffffffffffffffff168573ffffffffffffffffffffffffffffffffffffffff1603614124576001819250925050614161565b808061412f906150f8565b9150506140c1565b505b60007fffffffffffffffffffffffffffffffffffffffffffffffffffffffffffffffff915091505b9250929050565b60405160200161417790615e32565b604051602081830303815290604052805190602001208160405160200161419e91906156f6565b6040516020818303038152906040528051906020012003614409576000600183815481106141cf576141ce615066565b5b9060005260206000200160009054906101000a900473ffffffffffffffffffffffffffffffffffffffff16905061423f8186600b546040518060400160405280600a81526020017f746f6b656e734c656e7400000000000000000000000000000000000000000000815250611a65565b156142dc5783600360008773ffffffffffffffffffffffffffffffffffffffff1673ffffffffffffffffffffffffffffffffffffffff16815260200190815260200160002060008373ffffffffffffffffffffffffffffffffffffffff1673ffffffffffffffffffffffffffffffffffffffff16815260200190815260200160002060008282546142d091906150c4565b92505081905550614403565b8460056000600b60008154809291906142f4906150f8565b91905055815260200190815260200160002060008373ffffffffffffffffffffffffffffffffffffffff1673ffffffffffffffffffffffffffffffffffffffff16815260200190815260200160002060006101000a81548173ffffffffffffffffffffffffffffffffffffffff021916908373ffffffffffffffffffffffffffffffffffffffff16021790555083600360008773ffffffffffffffffffffffffffffffffffffffff1673ffffffffffffffffffffffffffffffffffffffff16815260200190815260200160002060008373ffffffffffffffffffffffffffffffffffffffff1673ffffffffffffffffffffffffffffffffffffffff168152602001908152602001600020819055505b506146a7565b60405160200161441890615e93565b604051602081830303815290604052805190602001208160405160200161443f91906156f6565b60405160208183030381529060405280519060200120036146a6576000600283815481106144705761446f615066565b5b9060005260206000200160009054906101000a900473ffffffffffffffffffffffffffffffffffffffff1690506144e08186600c546040518060400160405280600e81526020017f746f6b656e73426f72726f776564000000000000000000000000000000000000815250611a65565b1561457d5783600460008773ffffffffffffffffffffffffffffffffffffffff1673ffffffffffffffffffffffffffffffffffffffff16815260200190815260200160002060008373ffffffffffffffffffffffffffffffffffffffff1673ffffffffffffffffffffffffffffffffffffffff168152602001908152602001600020600082825461457191906150c4565b925050819055506146a4565b8460066000600c6000815480929190614595906150f8565b91905055815260200190815260200160002060008373ffffffffffffffffffffffffffffffffffffffff1673ffffffffffffffffffffffffffffffffffffffff16815260200190815260200160002060006101000a81548173ffffffffffffffffffffffffffffffffffffffff021916908373ffffffffffffffffffffffffffffffffffffffff16021790555083600460008773ffffffffffffffffffffffffffffffffffffffff1673ffffffffffffffffffffffffffffffffffffffff16815260200190815260200160002060008373ffffffffffffffffffffffffffffffffffffffff1673ffffffffffffffffffffffffffffffffffffffff168152602001908152602001600020819055505b505b5b50505050565b6146b5614885565b73ffffffffffffffffffffffffffffffffffffffff166146d3612297565b73ffffffffffffffffffffffffffffffffffffffff1614614729576040517f08c379a000000000000000000000000000000000000000000000000000000000815260040161472090615ef4565b60405180910390fd5b565b60008060009054906101000a900473ffffffffffffffffffffffffffffffffffffffff169050816000806101000a81548173ffffffffffffffffffffffffffffffffffffffff021916908373ffffffffffffffffffffffffffffffffffffffff1602179055508173ffffffffffffffffffffffffffffffffffffffff168173ffffffffffffffffffffffffffffffffffffffff167f8be0079c531659141344cd1fd0a4f28419497f9722a3daafe3b4186f6b6457e060405160405180910390a35050565b6000808251111561487a5760005b825181101561487857836000015173ffffffffffffffffffffffffffffffffffffffff1683828151811061483457614833615066565b5b60200260200101516000015173ffffffffffffffffffffffffffffffffffffffff160361486557600191505061487f565b8080614870906150f8565b9150506147fd565b505b600090505b92915050565b600033905090565b6040518060800160405280600073ffffffffffffffffffffffffffffffffffffffff1681526020016000815260200160008152602001606081525090565b6000604051905090565b600080fd5b600080fd5b600073ffffffffffffffffffffffffffffffffffffffff82169050919050565b600061490a826148df565b9050919050565b61491a816148ff565b811461492557600080fd5b50565b60008135905061493781614911565b92915050565b600060208284031215614953576149526148d5565b5b600061496184828501614928565b91505092915050565b6000819050919050565b61497d8161496a565b82525050565b60006020820190506149986000830184614974565b92915050565b6149a78161496a565b81146149b257600080fd5b50565b6000813590506149c48161499e565b92915050565b6000602082840312156149e0576149df6148d5565b5b60006149ee848285016149b5565b91505092915050565b614a00816148ff565b82525050565b600081519050919050565b600082825260208201905092915050565b60005b83811015614a40578082015181840152602081019050614a25565b60008484015250505050565b6000601f19601f8301169050919050565b6000614a6882614a06565b614a728185614a11565b9350614a82818560208601614a22565b614a8b81614a4c565b840191505092915050565b6000608082019050614aab60008301876149f7565b614ab86020830186614974565b614ac56040830185614974565b8181036060830152614ad78184614a5d565b905095945050505050565b60008060408385031215614af957614af86148d5565b5b6000614b0785828601614928565b9250506020614b18858286016149b5565b9150509250929050565b60008060408385031215614b3957614b386148d5565b5b6000614b4785828601614928565b9250506020614b5885828601614928565b9150509250929050565b600081519050919050565b600082825260208201905092915050565b6000819050602082019050919050565b614b97816148ff565b82525050565b6000614ba98383614b8e565b60208301905092915050565b6000602082019050919050565b6000614bcd82614b62565b614bd78185614b6d565b9350614be283614b7e565b8060005b83811015614c13578151614bfa8882614b9d565b9750614c0583614bb5565b925050600181019050614be6565b5085935050505092915050565b60006020820190508181036000830152614c3a8184614bc2565b905092915050565b60008060408385031215614c5957614c586148d5565b5b6000614c67858286016149b5565b9250506020614c7885828601614928565b9150509250929050565b600080fd5b600080fd5b7f4e487b7100000000000000000000000000000000000000000000000000000000600052604160045260246000fd5b614cc482614a4c565b810181811067ffffffffffffffff82111715614ce357614ce2614c8c565b5b80604052505050565b6000614cf66148cb565b9050614d028282614cbb565b919050565b600067ffffffffffffffff821115614d2257614d21614c8c565b5b614d2b82614a4c565b9050602081019050919050565b82818337600083830152505050565b6000614d5a614d5584614d07565b614cec565b905082815260208101848484011115614d7657614d75614c87565b5b614d81848285614d38565b509392505050565b600082601f830112614d9e57614d9d614c82565b5b8135614dae848260208601614d47565b91505092915050565b60008060008060808587031215614dd157614dd06148d5565b5b6000614ddf87828801614928565b9450506020614df087828801614928565b9350506040614e01878288016149b5565b925050606085013567ffffffffffffffff811115614e2257614e216148da565b5b614e2e87828801614d89565b91505092959194509250565b60008115159050919050565b614e4f81614e3a565b82525050565b6000602082019050614e6a6000830184614e46565b92915050565b6000602082019050614e8560008301846149f7565b92915050565b60008060008060808587031215614ea557614ea46148d5565b5b600085013567ffffffffffffffff811115614ec357614ec26148da565b5b614ecf87828801614d89565b9450506020614ee087828801614928565b9350506040614ef1878288016149b5565b9250506060614f02878288016149b5565b91505092959194509250565b614f178161496a565b82525050565b600082825260208201905092915050565b6000614f3982614a06565b614f438185614f1d565b9350614f53818560208601614a22565b614f5c81614a4c565b840191505092915050565b6000608083016000830151614f7f6000860182614b8e565b506020830151614f926020860182614f0e565b506040830151614fa56040860182614f0e565b5060608301518482036060860152614fbd8282614f2e565b9150508091505092915050565b60006020820190508181036000830152614fe48184614f67565b905092915050565b6000819050919050565b600061501161500c615007846148df565b614fec565b6148df565b9050919050565b600061502382614ff6565b9050919050565b600061503582615018565b9050919050565b6150458161502a565b82525050565b6000602082019050615060600083018461503c565b92915050565b7f4e487b7100000000000000000000000000000000000000000000000000000000600052603260045260246000fd5b7f4e487b7100000000000000000000000000000000000000000000000000000000600052601160045260246000fd5b60006150cf8261496a565b91506150da8361496a565b92508282019050808211156150f2576150f1615095565b5b92915050565b60006151038261496a565b91507fffffffffffffffffffffffffffffffffffffffffffffffffffffffffffffffff820361513557615134615095565b5b600182019050919050565b7f4e487b7100000000000000000000000000000000000000000000000000000000600052602260045260246000fd5b6000600282049050600182168061518757607f821691505b60208210810361519a57615199615140565b5b50919050565b60006151ab8261496a565b91506151b68361496a565b9250817fffffffffffffffffffffffffffffffffffffffffffffffffffffffffffffffff04831182151516156151ef576151ee615095565b5b828202905092915050565b7f4e487b7100000000000000000000000000000000000000000000000000000000600052601260045260246000fd5b60006152348261496a565b915061523f8361496a565b92508261524f5761524e6151fa565b5b828204905092915050565b6000819050919050565b61526d8161525a565b82525050565b600060408201905061528860008301856149f7565b6152956020830184615264565b9392505050565b60006040820190506152b160008301856149f7565b6152be6020830184614974565b9392505050565b60006060820190506152da60008301866149f7565b6152e760208301856149f7565b6152f46040830184614974565b949350505050565b61530581614e3a565b811461531057600080fd5b50565b600081519050615322816152fc565b92915050565b60006020828403121561533e5761533d6148d5565b5b600061534c84828501615313565b91505092915050565b60006153608261496a565b915061536b8361496a565b925082820390508181111561538357615382615095565b5b92915050565b7f4e487b7100000000000000000000000000000000000000000000000000000000600052603160045260246000fd5b600081549050919050565b60008190508160005260206000209050919050565b6000600182049050919050565b600073ffffffffffffffffffffffffffffffffffffffff82169050919050565b6000615418615413836153d8565b6153e5565b9050919050565b600061542b8254615405565b9050919050565b6000600182019050919050565b600061544a826153b8565b6154548185614b6d565b935061545f836153c3565b8060005b83811015615497576154748261541f565b61547e8882614b9d565b975061548983615432565b925050600181019050615463565b5085935050505092915050565b600060a0820190506154b960008301886149f7565b6154c66020830187615264565b6154d36040830186614974565b6154e06060830185614974565b81810360808301526154f2818461543f565b90509695505050505050565b600060608201905061551360008301866149f7565b6155206020830185614974565b61552d6040830184614974565b949350505050565b6000815190506155448161499e565b92915050565b6000602082840312156155605761555f6148d5565b5b600061556e84828501615535565b91505092915050565b7f496e73756666696369656e7420546f6b656e0000000000000000000000000000600082015250565b60006155ad601283614a11565b91506155b882615577565b602082019050919050565b600060208201905081810360008301526155dc816155a0565b9050919050565b600060e0820190506155f8600083018a6149f7565b6156056020830189614974565b6156126040830188614974565b61561f6060830187614e46565b61562c6080830186615264565b81810360a083015261563e818561543f565b905061564d60c0830184614974565b98975050505050505050565b600081905092915050565b7f746f6b656e734c656e7400000000000000000000000000000000000000000000600082015250565b600061569a600a83615659565b91506156a582615664565b600a82019050919050565b60006156bb8261568d565b9150819050919050565b60006156d082614a06565b6156da8185615659565b93506156ea818560208601614a22565b80840191505092915050565b600061570282846156c5565b915081905092915050565b7f746f6b656e73426f72726f776564000000000000000000000000000000000000600082015250565b6000615743600e83615659565b915061574e8261570d565b600e82019050919050565b600061576482615736565b9150819050919050565b600060608201905061578360008301866149f7565b8181036020830152615795818561543f565b90506157a46040830184614974565b949350505050565b60008190508160005260206000209050919050565b60006020601f8301049050919050565b60008160020a8302905092915050565b6000600883026158117fffffffffffffffffffffffffffffffffffffffffffffffffffffffffffffffff826157d1565b61581b86836157d1565b95508019841693508086168417925050509392505050565b600061584e6158496158448461496a565b614fec565b61496a565b9050919050565b6000819050919050565b61586883615833565b61587c61587482615855565b8484546157e1565b825550505050565b600090565b615891615884565b61589c81848461585f565b505050565b5b818110156158c0576158b5600082615889565b6001810190506158a2565b5050565b601f821115615905576158d6816157ac565b6158df846157c1565b810160208510156158ee578190505b6159026158fa856157c1565b8301826158a1565b50505b505050565b60008160020a8304905092915050565b600061592b6000198460080261590a565b1980831691505092915050565b6000615944838361591a565b9150826002028217905092915050565b61595d82614a06565b67ffffffffffffffff81111561597657615975614c8c565b5b615980825461516f565b61598b8282856158c4565b600060209050601f8311600181146159be57600084156159ac578287015190505b6159b68582615938565b865550615a1e565b601f1984166159cc866157ac565b60005b828110156159f4578489015182556001820191506020850194506020810190506159cf565b86831015615a115784890151615a0d601f89168261591a565b8355505b6001600288020188555050505b505050505050565b7f4f776e61626c653a206e6577206f776e657220697320746865207a65726f206160008201527f6464726573730000000000000000000000000000000000000000000000000000602082015250565b6000615a82602683614a11565b9150615a8d82615a26565b604082019050919050565b60006020820190508181036000830152615ab181615a75565b9050919050565b600060c082019050615acd60008301896149f7565b615ada6020830188614974565b615ae76040830187614974565b615af46060830186614974565b615b016080830185614974565b615b0e60a0830184614974565b979650505050505050565b600069ffffffffffffffffffff82169050919050565b615b3881615b19565b8114615b4357600080fd5b50565b600081519050615b5581615b2f565b92915050565b615b648161525a565b8114615b6f57600080fd5b50565b600081519050615b8181615b5b565b92915050565b600080600080600060a08688031215615ba357615ba26148d5565b5b6000615bb188828901615b46565b9550506020615bc288828901615b72565b9450506040615bd388828901615535565b9350506060615be488828901615535565b9250506080615bf588828901615b46565b9150509295509295909350565b600060ff82169050919050565b615c1881615c02565b8114615c2357600080fd5b50565b600081519050615c3581615c0f565b92915050565b600060208284031215615c5157615c506148d5565b5b6000615c5f84828501615c26565b91505092915050565b6000600282049050919050565b6000808291508390505b6001851115615cbf57808604811115615c9b57615c9a615095565b5b6001851615615caa5780820291505b8081029050615cb885615c68565b9450615c7f565b94509492505050565b600082615cd85760019050615d94565b81615ce65760009050615d94565b8160018114615cfc5760028114615d0657615d35565b6001915050615d94565b60ff841115615d1857615d17615095565b5b8360020a915084821115615d2f57615d2e615095565b5b50615d94565b5060208310610133831016604e8410600b8410161715615d6a5782820a905083811115615d6557615d64615095565b5b615d94565b615d778484846001615c75565b92509050818404811115615d8e57615d8d615095565b5b81810290505b9392505050565b6000615da68261496a565b9150615db183615c02565b9250615dde7fffffffffffffffffffffffffffffffffffffffffffffffffffffffffffffffff8484615cc8565b905092915050565b7f6c656e6465727300000000000000000000000000000000000000000000000000600082015250565b6000615e1c600783615659565b9150615e2782615de6565b600782019050919050565b6000615e3d82615e0f565b9150819050919050565b7f626f72726f776572730000000000000000000000000000000000000000000000600082015250565b6000615e7d600983615659565b9150615e8882615e47565b600982019050919050565b6000615e9e82615e70565b9150819050919050565b7f4f776e61626c653a2063616c6c6572206973206e6f7420746865206f776e6572600082015250565b6000615ede602083614a11565b9150615ee982615ea8565b602082019050919050565b60006020820190508181036000830152615f0d81615ed1565b905091905056fea26469706673582212205846b4080b53610ac5323db488e7e3be0e41fb469f6dc8e72b12af9caa7488b064736f6c63430008100033",
  "immutableReferences": {},
  "source": "// SPDX-License-Identifier: MIT\npragma solidity >=0.4.22 <0.9.0;\nimport \"./LendingHelper.sol\";\n\ncontract LendingAndBorrowing is Ownable {\n    using LendingHelper for address;\n\n    address[] public lenders;\n    address[] public borrowers;\n\n    mapping(address => mapping(address => uint256)) public tokensLentAmount;\n    mapping(address => mapping(address => uint256)) public tokensBorrowedAmount;\n\n    mapping(uint256 => mapping(address => address)) public tokensLent;\n    mapping(uint256 => mapping(address => address)) public tokensBorrowed;\n\n    mapping(address => address) public tokenToPriceFeed;\n\n    event Withdraw(\n        address sender,\n        uint256 amount,\n        uint256 tokenToWithdrawInDollars,\n        uint256 availableToWithdraw,\n        uint256 totalAmountLentInDollars,\n        uint256 larTokenToRemove\n    );\n    event PayDebt(\n        address sender,\n        int256 index,\n        uint256 tokenAmountBorrowed,\n        uint256 totalTokenAmountToCollectFromUser,\n        address[] borrowers\n    );\n    event Borrow(\n        address sender,\n        uint256 amountInDollars,\n        uint256 totalAmountAvailableForBorrowInDollars,\n        bool userPresent,\n        int256 userIndex,\n        address[] borrowers,\n        uint256 currentUserTokenBorrowedAmount\n    );\n    event Supply(address sender,address[] lenders,uint256 currentUserTokenLentAmount);\n    event WithdrawTesting(address sender,uint256 tokentoWithdrawInDollars,uint256 availableToWithdraw);\n    event BorrowTesting1(address sender,uint256 amountInDollars,uint256 totalAmountAvailableForBorrowInDollars);\n    event BorrowTesting2(address sender, uint256 balance, uint256 amount);\n    event RepayTesting1(address sender, int256 index);\n    event RepayTesting2(address sender, uint256 tokenBorrowed);\n\n    struct Token {\n        address tokenAddress;\n        uint256 LTV;\n        uint256 stableRate;\n        string name;\n    }\n\n    Token[] public tokensForLending;\n    Token[] public tokensForBorrowing;\n\n    IERC20 public larToken;\n\n    uint256 public noOfTokensLent = 0;\n    uint256 public noOfTokensBorrowed = 0;\n\n    constructor(address _token) {\n        larToken = IERC20(_token);\n    }\n\n    function addTokensForLending(\n        string memory name,\n        address tokenAddress,\n        uint256 LTV,\n        uint256 borrowStableRate\n    ) external onlyOwner {\n        Token memory token = Token(tokenAddress, LTV, borrowStableRate, name);\n\n        if (!tokenIsAlreadyThere(token,tokensForLending)) {\n            tokensForLending.push(token);\n        }\n    }\n\n    function addTokensForBorrowing(\n        string memory name,\n        address tokenAddress,\n        uint256 LTV,\n        uint256 borrowStableRate\n    ) external onlyOwner {\n        Token memory token = Token(tokenAddress, LTV, borrowStableRate, name);\n\n        if (!tokenIsAlreadyThere(token,tokensForBorrowing)) {\n            tokensForBorrowing.push(token);\n        }\n    }\n\n    function addTokenToPriceFeedMapping(address tokenAddress, address tokenToUsdPriceFeed) external onlyOwner {\n        tokenToPriceFeed[tokenAddress] = tokenToUsdPriceFeed;\n    }\n\n    function getLendersArray() public view returns (address[] memory) {\n        return lenders;\n    }\n\n    function getBorrowersArray() public view returns (address[] memory) {\n        return borrowers;\n    }\n\n    function lend(address tokenAddress, uint256 amount) external payable {\n        require(tokenIsAllowed(tokenAddress, tokensForLending));\n        require(amount > 0);\n\n        IERC20 token = IERC20(tokenAddress);\n\n        require(token.balanceOf(msg.sender) >= amount);\n\n        token.transferFrom(msg.sender, address(this), amount);\n\n        (bool userPresent, int256 userIndex) = msg.sender.isUserPresentIn(lenders);\n\n        if (userPresent) {\n            updateUserTokensBorrowedOrLent(tokenAddress,amount,userIndex,\"lenders\");\n        } else {\n            lenders.push(msg.sender);\n            tokensLentAmount[tokenAddress][msg.sender] = amount;\n            tokensLent[noOfTokensLent++][msg.sender] = tokenAddress;\n        }\n\n         // Send some tokens to the user equivalent to the token amount lent.\n        larToken.transfer(msg.sender, getAmountInDollars(amount, tokenAddress));\n\n        emit Supply(msg.sender,lenders,tokensLentAmount[tokenAddress][msg.sender]);\n    }\n\n    function borrow(uint256 amount, address tokenAddress) external {\n        require(tokenIsAllowed(tokenAddress, tokensForBorrowing));\n        require(amount > 0);\n\n        uint256 totalAmountAvailableForBorrowInDollars = getUserTotalAmountAvailableForBorrowInDollars(msg.sender);\n        uint256 amountInDollars = getAmountInDollars(amount, tokenAddress);\n\n        emit BorrowTesting1(msg.sender,amountInDollars,totalAmountAvailableForBorrowInDollars);\n\n        require(amountInDollars <= totalAmountAvailableForBorrowInDollars);\n\n        IERC20 token = IERC20(tokenAddress);\n\n        emit BorrowTesting2(msg.sender, token.balanceOf(address(this)), amount);\n\n        require(token.balanceOf(address(this)) >= amount,\"Insufficient Token\");\n\n        token.transfer(msg.sender, amount);\n\n        //Library function isUserPresentIn\n        (bool userPresent, int256 userIndex) = msg.sender.isUserPresentIn(borrowers);\n\n        if (userPresent) {\n          updateUserTokensBorrowedOrLent(tokenAddress,amount,userIndex,\"borrowers\");\n        } else {\n            borrowers.push(msg.sender);\n            tokensBorrowedAmount[tokenAddress][msg.sender] = amount;\n            tokensBorrowed[noOfTokensBorrowed++][msg.sender] = tokenAddress;\n        }\n\n        emit Borrow(\n            msg.sender,\n            amountInDollars,\n            totalAmountAvailableForBorrowInDollars,\n            userPresent,\n            userIndex,\n            borrowers,\n            tokensBorrowedAmount[tokenAddress][msg.sender]\n        );\n    }\n\n    function payDebt(address tokenAddress, uint256 amount) external {\n        require(amount > 0);\n\n        int256 index = msg.sender.indexOf(borrowers);\n\n        emit RepayTesting1(msg.sender, index);\n        require(index >= 0);\n\n        uint256 tokenBorrowed = tokensBorrowedAmount[tokenAddress][msg.sender];\n\n        emit RepayTesting2(msg.sender, tokenBorrowed);\n\n        require(tokenBorrowed > 0);\n        IERC20 token = IERC20(tokenAddress);\n\n        token.transferFrom(msg.sender,address(this),amount + interest(tokenAddress, tokenBorrowed));\n\n        tokensBorrowedAmount[tokenAddress][msg.sender] -= amount;\n\n        // Check If all the amount borrowed = 0;\n        if (getTotalAmountBorrowedInDollars(msg.sender) == 0) {\n            borrowers[uint256(index)] = borrowers[borrowers.length - 1];\n            borrowers.pop();\n        }\n\n        emit PayDebt(\n            msg.sender,\n            index,\n            tokenBorrowed,\n            amount + interest(tokenAddress, tokenBorrowed),\n            borrowers\n        );\n    }\n\n    function withdraw(address tokenAddress, uint256 amount) external {\n        require(amount > 0);\n\n        require(msg.sender.indexOf(lenders) >= 0);\n\n        IERC20 token = IERC20(tokenAddress);\n\n        uint256 tokenToWithdrawInDollars = getAmountInDollars(amount,tokenAddress);\n        uint256 availableToWithdraw = getTokenAvailableToWithdraw(msg.sender);\n\n        uint totalTokenSuppliedInContract = getTotalTokenSupplied(tokenAddress);\n        uint totalTokenBorrowedInContract = getTotalTokenBorrowed(tokenAddress);\n\n        require(amount <= (totalTokenSuppliedInContract - totalTokenBorrowedInContract));\n\n        emit WithdrawTesting(msg.sender,tokenToWithdrawInDollars,availableToWithdraw);\n\n        require(tokenToWithdrawInDollars <= availableToWithdraw);\n\n        uint256 larTokenToRemove = getAmountInDollars(amount, tokenAddress);\n        uint256 larTokenBalance = larToken.balanceOf(msg.sender);\n\n        if (larTokenToRemove <= larTokenBalance) {\n            larToken.transferFrom(msg.sender, address(this), larTokenToRemove);\n        } else {\n            larToken.transferFrom(msg.sender, address(this), larTokenBalance);\n        }\n\n        token.transfer(msg.sender, amount);\n\n        tokensLentAmount[tokenAddress][msg.sender] -= amount;\n\n        emit Withdraw(\n            msg.sender,\n            amount,\n            tokenToWithdrawInDollars,\n            availableToWithdraw,\n            getTotalAmountLentInDollars(msg.sender),\n            larTokenToRemove\n        );\n\n        if (getTotalAmountLentInDollars(msg.sender) <= 0) {\n            lenders[uint256(msg.sender.indexOf(lenders))] = lenders[lenders.length - 1];\n            lenders.pop();\n        }\n    }\n\n    function getTokenAvailableToWithdraw(address user)public view returns (uint256){\n\n        uint256 totalAmountBorrowedInDollars = getTotalAmountBorrowedInDollars(user);\n\n        uint remainingCollateral = 0;\n\n        if (totalAmountBorrowedInDollars > 0 ){\n            remainingCollateral = getRemainingCollateral(user);\n        }else{\n            remainingCollateral = getTotalAmountLentInDollars(user);\n        }\n\n        if (remainingCollateral < totalAmountBorrowedInDollars){return 0;}\n\n        return remainingCollateral - totalAmountBorrowedInDollars;\n    }\n\n    function getRemainingCollateral(address user)public view returns (uint256){\n           uint256 remainingCollateral = 0;\n           for (uint256 i = 0; i < noOfTokensLent; i++)\n           {\n               address userLentTokenAddressFound = tokensLent[i][user];\n\n               if (userLentTokenAddressFound !=0x0000000000000000000000000000000000000000)\n               {\n                 uint256 tokenAmountLentInDollars = getAmountInDollars(\n                   tokensLentAmount[userLentTokenAddressFound][user],\n                   userLentTokenAddressFound);\n\n                 remainingCollateral += (tokenAmountLentInDollars * getTokenFrom(userLentTokenAddressFound).LTV) / 10 ** 18;\n               }\n           }\n           return remainingCollateral;\n       }\n\n       function getTotalAmountBorrowedInDollars(address user) public view returns (uint256){\n           uint256 totalAmountBorrowed = 0;\n\n           for (uint256 i = 0; i < noOfTokensBorrowed; i++) {\n               address userBorrowedTokenAddressFound = tokensBorrowed[i][user];\n\n               if (userBorrowedTokenAddressFound != 0x0000000000000000000000000000000000000000)\n               {\n                  ///tokenAmountBorrowed is tokensBorrowedAmount[userBorrowedTokenAddressFound][user];\n\n                   uint256 tokenAmountBorrowedInDollars = getAmountInDollars(\n                       tokensBorrowedAmount[userBorrowedTokenAddressFound][user],\n                       userBorrowedTokenAddressFound\n                   );\n\n                   totalAmountBorrowed += tokenAmountBorrowedInDollars;\n               }\n           }\n           return totalAmountBorrowed;\n       }\n\n       function getTotalAmountLentInDollars(address user) public view returns (uint256){\n           uint256 totalAmountLent = 0;\n           for (uint256 i = 0; i < noOfTokensLent; i++) {\n               if (tokensLent[i][user] !=0x0000000000000000000000000000000000000000)\n               {\n                   uint256 tokenAmountLent = tokensLentAmount[tokensLent[i][user]][user];\n\n                   uint256 tokenAmountLentInDollars = getAmountInDollars(tokenAmountLent,tokensLent[i][user]);\n\n                   totalAmountLent += tokenAmountLentInDollars;\n               }\n           }\n           return totalAmountLent;\n       }\n\n       function interest(address tokenAddress, uint256 tokenBorrowed) public view returns (uint256){\n           return (tokenBorrowed * getTokenFrom(tokenAddress).stableRate) / 10**18;\n       }\n\n       function getTokenFrom(address tokenAddress) public view returns (Token memory){\n           Token memory token;\n           for (uint256 i = 0; i < tokensForBorrowing.length; i++) {\n               if (tokensForBorrowing[i].tokenAddress == tokenAddress) {\n                   token = tokensForBorrowing[i];\n                   break;\n               }\n           }\n           return token;\n       }\n\n       function getUserTotalAmountAvailableForBorrowInDollars(address user) public view returns (uint256){\n           uint256 userTotalCollateralToBorrow = 0;\n           uint256 userTotalCollateralAlreadyBorrowed = 0;\n\n           for (uint256 i = 0; i < lenders.length; i++){\n               if (lenders[i] == user) {\n                   for (uint256 j = 0; j < tokensForLending.length; j++) {\n                       userTotalCollateralToBorrow += ( getAmountInDollars(\n                         tokensLentAmount[tokensForLending[j].tokenAddress][user],\n                         tokensForLending[j].tokenAddress)\n                         * tokensForLending[j].LTV ) / 10**18;\n                   }\n               }\n           }\n           for (uint256 i = 0; i < borrowers.length; i++){\n               if (borrowers[i] == user) {\n                   for (uint256 j = 0; j < tokensForBorrowing.length; j++){\n                       userTotalCollateralAlreadyBorrowed += getAmountInDollars(\n                         tokensBorrowedAmount[tokensForBorrowing[j].tokenAddress][user],\n                         tokensForBorrowing[j].tokenAddress);\n                   }\n               }\n           }\n\n           return userTotalCollateralToBorrow - userTotalCollateralAlreadyBorrowed;\n       }\n\n\n       function tokenIsAllowed(address tokenAddress, Token[] memory tokenArray) private pure returns (bool){\n           if (tokenArray.length > 0) {\n               for (uint256 i = 0; i < tokenArray.length; i++) {\n                   if (tokenArray[i].tokenAddress == tokenAddress) {\n                       return true;\n                   }\n               }\n           }\n           return false;\n       }\n\n       function tokenIsAlreadyThere(Token memory token, Token[] memory tokenArray) private pure returns (bool){\n           if (tokenArray.length > 0) {\n               for (uint256 i = 0; i < tokenArray.length; i++) {\n                   if (tokenArray[i].tokenAddress == token.tokenAddress) {\n                       return true;\n                   }\n               }\n           }\n           return false;\n       }\n\n       function getAmountInDollars(uint256 amount, address tokenAddress) public view returns (uint256){\n           //Calculating oneTokenEqualsHowManyDollars\n           AggregatorV3Interface priceFeed = AggregatorV3Interface(tokenToPriceFeed[tokenAddress]);\n\n           (, int256 price, , , ) = priceFeed.latestRoundData();\n\n           return (amount * uint256(price)) / (10**priceFeed.decimals());\n       }\n\n\n       function updateUserTokensBorrowedOrLent(\n         address tokenAddress,\n         uint256 amount,\n         int256 userIndex,\n         string memory lendersOrBorrowers)\n         private {\n           if ( keccak256(abi.encodePacked(lendersOrBorrowers)) == keccak256(abi.encodePacked(\"lenders\"))) {\n               address currentUser = lenders[uint256(userIndex)];\n\n               if (hasLentOrBorrowedToken(currentUser, tokenAddress, noOfTokensLent,\"tokensLent\")) {\n                   tokensLentAmount[tokenAddress][currentUser] += amount;\n               } else {\n                   tokensLent[noOfTokensLent++][currentUser] = tokenAddress;\n                   tokensLentAmount[tokenAddress][currentUser] = amount;\n               }\n           } else if (keccak256(abi.encodePacked(lendersOrBorrowers)) == keccak256(abi.encodePacked(\"borrowers\"))) {\n               address currentUser = borrowers[uint256(userIndex)];\n\n               if (hasLentOrBorrowedToken(currentUser,tokenAddress,noOfTokensBorrowed,\"tokensBorrowed\")) {\n                   tokensBorrowedAmount[tokenAddress][currentUser] += amount;\n               } else {\n                   tokensBorrowed[noOfTokensBorrowed++][currentUser] = tokenAddress;\n                   tokensBorrowedAmount[tokenAddress][currentUser] = amount;\n               }\n           }\n       }\n\n       function hasLentOrBorrowedToken(\n           address currentUser,\n           address tokenAddress,\n           uint256 noOfTokenslentOrBorrowed,\n           string memory _tokensLentOrBorrowed\n       ) public view returns (bool) {\n           if (noOfTokenslentOrBorrowed > 0) {\n               if (keccak256(abi.encodePacked(_tokensLentOrBorrowed)) == keccak256(abi.encodePacked(\"tokensLent\"))) {\n                   for (uint256 i = 0; i < noOfTokensLent; i++) {\n                       address tokenAddressFound = tokensLent[i][currentUser];\n                       if (tokenAddressFound == tokenAddress) {\n                           return true;\n                       }\n                   }\n               } else if (keccak256(abi.encodePacked(_tokensLentOrBorrowed)) == keccak256(abi.encodePacked(\"tokensBorrowed\"))) {\n                   for (uint256 i = 0; i < noOfTokensBorrowed; i++) {\n                       address tokenAddressFound = tokensBorrowed[i][currentUser];\n                       if (tokenAddressFound == tokenAddress) {\n                           return true;\n                       }\n                   }\n               }\n           }\n           return false;\n       }\n\n\n\n       function getTotalTokenSupplied(address tokenAddres) public view returns (uint256){\n           uint256 totalTokenSupplied = 0;\n           if (lenders.length > 0) {\n               for (uint256 i = 0; i < lenders.length; i++) {\n                   totalTokenSupplied += tokensLentAmount[tokenAddres][lenders[i]];\n               }\n           }\n\n           return totalTokenSupplied;\n       }\n\n       function getTotalTokenBorrowed(address tokenAddress) public view returns (uint256){\n           uint256 totalTokenBorrowed = 0;\n           if (borrowers.length > 0) {\n               for (uint256 i = 0; i < borrowers.length; i++) {\n                   totalTokenBorrowed += tokensBorrowedAmount[tokenAddress][borrowers[i]];\n               }\n           }\n           return totalTokenBorrowed;\n       }\n\n}\n",
  "sourcePath": "/Users/paras/Documents/lending_borrowing/contracts/LendingAndBorrowing.sol",
  "compiler": {
    "name": "solc",
    "version": "0.8.16+commit.07a7930e.Emscripten.clang"
  },
  "schemaVersion": "3.4.7",
  "updatedAt": "2022-08-16T17:32:01.598Z",
  "networkType": "ethereum",
  "devdoc": {
    "kind": "dev",
    "methods": {
      "owner()": {
        "details": "Returns the address of the current owner."
      },
      "renounceOwnership()": {
        "details": "Leaves the contract without owner. It will not be possible to call `onlyOwner` functions anymore. Can only be called by the current owner. NOTE: Renouncing ownership will leave the contract without an owner, thereby removing any functionality that is only available to the owner."
      },
      "transferOwnership(address)": {
        "details": "Transfers ownership of the contract to a new account (`newOwner`). Can only be called by the current owner."
      }
    },
    "version": 1
  },
  "userdoc": {
    "kind": "user",
    "methods": {},
    "version": 1
  }
}