{
  "contractName": "LendingAndBorrowing",
  "abi": [
    {
      "inputs": [
        {
          "internalType": "address",
          "name": "_token",
          "type": "address"
        }
      ],
      "stateMutability": "nonpayable",
      "type": "constructor"
    },
    {
      "anonymous": false,
      "inputs": [
        {
          "indexed": false,
          "internalType": "address",
          "name": "sender",
          "type": "address"
        },
        {
          "indexed": false,
          "internalType": "uint256",
          "name": "amountInDollars",
          "type": "uint256"
        },
        {
          "indexed": false,
          "internalType": "uint256",
          "name": "totalAmountAvailableForBorrowInDollars",
          "type": "uint256"
        },
        {
          "indexed": false,
          "internalType": "bool",
          "name": "userPresent",
          "type": "bool"
        },
        {
          "indexed": false,
          "internalType": "int256",
          "name": "userIndex",
          "type": "int256"
        },
        {
          "indexed": false,
          "internalType": "address[]",
          "name": "borrowers",
          "type": "address[]"
        },
        {
          "indexed": false,
          "internalType": "uint256",
          "name": "currentUserTokenBorrowedAmount",
          "type": "uint256"
        }
      ],
      "name": "Borrow",
      "type": "event"
    },
    {
      "anonymous": false,
      "inputs": [
        {
          "indexed": false,
          "internalType": "address",
          "name": "sender",
          "type": "address"
        },
        {
          "indexed": false,
          "internalType": "uint256",
          "name": "amountInDollars",
          "type": "uint256"
        },
        {
          "indexed": false,
          "internalType": "uint256",
          "name": "totalAmountAvailableForBorrowInDollars",
          "type": "uint256"
        }
      ],
      "name": "BorrowTesting1",
      "type": "event"
    },
    {
      "anonymous": false,
      "inputs": [
        {
          "indexed": false,
          "internalType": "address",
          "name": "sender",
          "type": "address"
        },
        {
          "indexed": false,
          "internalType": "uint256",
          "name": "balance",
          "type": "uint256"
        },
        {
          "indexed": false,
          "internalType": "uint256",
          "name": "amount",
          "type": "uint256"
        }
      ],
      "name": "BorrowTesting2",
      "type": "event"
    },
    {
      "anonymous": false,
      "inputs": [
        {
          "indexed": true,
          "internalType": "address",
          "name": "previousOwner",
          "type": "address"
        },
        {
          "indexed": true,
          "internalType": "address",
          "name": "newOwner",
          "type": "address"
        }
      ],
      "name": "OwnershipTransferred",
      "type": "event"
    },
    {
      "anonymous": false,
      "inputs": [
        {
          "indexed": false,
          "internalType": "address",
          "name": "sender",
          "type": "address"
        },
        {
          "indexed": false,
          "internalType": "int256",
          "name": "index",
          "type": "int256"
        },
        {
          "indexed": false,
          "internalType": "uint256",
          "name": "tokenAmountBorrowed",
          "type": "uint256"
        },
        {
          "indexed": false,
          "internalType": "uint256",
          "name": "totalTokenAmountToCollectFromUser",
          "type": "uint256"
        },
        {
          "indexed": false,
          "internalType": "address[]",
          "name": "borrowers",
          "type": "address[]"
        }
      ],
      "name": "PayDebt",
      "type": "event"
    },
    {
      "anonymous": false,
      "inputs": [
        {
          "indexed": false,
          "internalType": "address",
          "name": "sender",
          "type": "address"
        },
        {
          "indexed": false,
          "internalType": "int256",
          "name": "index",
          "type": "int256"
        }
      ],
      "name": "RepayTesting1",
      "type": "event"
    },
    {
      "anonymous": false,
      "inputs": [
        {
          "indexed": false,
          "internalType": "address",
          "name": "sender",
          "type": "address"
        },
        {
          "indexed": false,
          "internalType": "uint256",
          "name": "tokenBorrowed",
          "type": "uint256"
        }
      ],
      "name": "RepayTesting2",
      "type": "event"
    },
    {
      "anonymous": false,
      "inputs": [
        {
          "indexed": false,
          "internalType": "address",
          "name": "sender",
          "type": "address"
        },
        {
          "indexed": false,
          "internalType": "address[]",
          "name": "lenders",
          "type": "address[]"
        },
        {
          "indexed": false,
          "internalType": "uint256",
          "name": "currentUserTokenLentAmount",
          "type": "uint256"
        }
      ],
      "name": "Supply",
      "type": "event"
    },
    {
      "anonymous": false,
      "inputs": [
        {
          "indexed": false,
          "internalType": "address",
          "name": "sender",
          "type": "address"
        },
        {
          "indexed": false,
          "internalType": "uint256",
          "name": "amount",
          "type": "uint256"
        },
        {
          "indexed": false,
          "internalType": "uint256",
          "name": "tokenToWithdrawInDollars",
          "type": "uint256"
        },
        {
          "indexed": false,
          "internalType": "uint256",
          "name": "availableToWithdraw",
          "type": "uint256"
        },
        {
          "indexed": false,
          "internalType": "uint256",
          "name": "totalAmountLentInDollars",
          "type": "uint256"
        },
        {
          "indexed": false,
          "internalType": "uint256",
          "name": "larTokenToRemove",
          "type": "uint256"
        }
      ],
      "name": "Withdraw",
      "type": "event"
    },
    {
      "anonymous": false,
      "inputs": [
        {
          "indexed": false,
          "internalType": "address",
          "name": "sender",
          "type": "address"
        },
        {
          "indexed": false,
          "internalType": "uint256",
          "name": "tokentoWithdrawInDollars",
          "type": "uint256"
        },
        {
          "indexed": false,
          "internalType": "uint256",
          "name": "availableToWithdraw",
          "type": "uint256"
        }
      ],
      "name": "WithdrawTesting",
      "type": "event"
    },
    {
      "inputs": [
        {
          "internalType": "uint256",
          "name": "",
          "type": "uint256"
        }
      ],
      "name": "borrowers",
      "outputs": [
        {
          "internalType": "address",
          "name": "",
          "type": "address"
        }
      ],
      "stateMutability": "view",
      "type": "function",
      "constant": true
    },
    {
      "inputs": [],
      "name": "larToken",
      "outputs": [
        {
          "internalType": "contract IERC20",
          "name": "",
          "type": "address"
        }
      ],
      "stateMutability": "view",
      "type": "function",
      "constant": true
    },
    {
      "inputs": [
        {
          "internalType": "uint256",
          "name": "",
          "type": "uint256"
        }
      ],
      "name": "lenders",
      "outputs": [
        {
          "internalType": "address",
          "name": "",
          "type": "address"
        }
      ],
      "stateMutability": "view",
      "type": "function",
      "constant": true
    },
    {
      "inputs": [],
      "name": "noOfTokensBorrowed",
      "outputs": [
        {
          "internalType": "uint256",
          "name": "",
          "type": "uint256"
        }
      ],
      "stateMutability": "view",
      "type": "function",
      "constant": true
    },
    {
      "inputs": [],
      "name": "noOfTokensLent",
      "outputs": [
        {
          "internalType": "uint256",
          "name": "",
          "type": "uint256"
        }
      ],
      "stateMutability": "view",
      "type": "function",
      "constant": true
    },
    {
      "inputs": [],
      "name": "owner",
      "outputs": [
        {
          "internalType": "address",
          "name": "",
          "type": "address"
        }
      ],
      "stateMutability": "view",
      "type": "function",
      "constant": true
    },
    {
      "inputs": [],
      "name": "renounceOwnership",
      "outputs": [],
      "stateMutability": "nonpayable",
      "type": "function"
    },
    {
      "inputs": [
        {
          "internalType": "address",
          "name": "",
          "type": "address"
        }
      ],
      "name": "tokenToPriceFeed",
      "outputs": [
        {
          "internalType": "address",
          "name": "",
          "type": "address"
        }
      ],
      "stateMutability": "view",
      "type": "function",
      "constant": true
    },
    {
      "inputs": [
        {
          "internalType": "uint256",
          "name": "",
          "type": "uint256"
        },
        {
          "internalType": "address",
          "name": "",
          "type": "address"
        }
      ],
      "name": "tokensBorrowed",
      "outputs": [
        {
          "internalType": "address",
          "name": "",
          "type": "address"
        }
      ],
      "stateMutability": "view",
      "type": "function",
      "constant": true
    },
    {
      "inputs": [
        {
          "internalType": "address",
          "name": "",
          "type": "address"
        },
        {
          "internalType": "address",
          "name": "",
          "type": "address"
        }
      ],
      "name": "tokensBorrowedAmount",
      "outputs": [
        {
          "internalType": "uint256",
          "name": "",
          "type": "uint256"
        }
      ],
      "stateMutability": "view",
      "type": "function",
      "constant": true
    },
    {
      "inputs": [
        {
          "internalType": "uint256",
          "name": "",
          "type": "uint256"
        }
      ],
      "name": "tokensForBorrowing",
      "outputs": [
        {
          "internalType": "address",
          "name": "tokenAddress",
          "type": "address"
        },
        {
          "internalType": "uint256",
          "name": "LTV",
          "type": "uint256"
        },
        {
          "internalType": "uint256",
          "name": "stableRate",
          "type": "uint256"
        },
        {
          "internalType": "string",
          "name": "name",
          "type": "string"
        }
      ],
      "stateMutability": "view",
      "type": "function",
      "constant": true
    },
    {
      "inputs": [
        {
          "internalType": "uint256",
          "name": "",
          "type": "uint256"
        }
      ],
      "name": "tokensForLending",
      "outputs": [
        {
          "internalType": "address",
          "name": "tokenAddress",
          "type": "address"
        },
        {
          "internalType": "uint256",
          "name": "LTV",
          "type": "uint256"
        },
        {
          "internalType": "uint256",
          "name": "stableRate",
          "type": "uint256"
        },
        {
          "internalType": "string",
          "name": "name",
          "type": "string"
        }
      ],
      "stateMutability": "view",
      "type": "function",
      "constant": true
    },
    {
      "inputs": [
        {
          "internalType": "uint256",
          "name": "",
          "type": "uint256"
        },
        {
          "internalType": "address",
          "name": "",
          "type": "address"
        }
      ],
      "name": "tokensLent",
      "outputs": [
        {
          "internalType": "address",
          "name": "",
          "type": "address"
        }
      ],
      "stateMutability": "view",
      "type": "function",
      "constant": true
    },
    {
      "inputs": [
        {
          "internalType": "address",
          "name": "",
          "type": "address"
        },
        {
          "internalType": "address",
          "name": "",
          "type": "address"
        }
      ],
      "name": "tokensLentAmount",
      "outputs": [
        {
          "internalType": "uint256",
          "name": "",
          "type": "uint256"
        }
      ],
      "stateMutability": "view",
      "type": "function",
      "constant": true
    },
    {
      "inputs": [
        {
          "internalType": "address",
          "name": "newOwner",
          "type": "address"
        }
      ],
      "name": "transferOwnership",
      "outputs": [],
      "stateMutability": "nonpayable",
      "type": "function"
    },
    {
      "inputs": [
        {
          "internalType": "string",
          "name": "name",
          "type": "string"
        },
        {
          "internalType": "address",
          "name": "tokenAddress",
          "type": "address"
        },
        {
          "internalType": "uint256",
          "name": "LTV",
          "type": "uint256"
        },
        {
          "internalType": "uint256",
          "name": "borrowStableRate",
          "type": "uint256"
        }
      ],
      "name": "addTokensForLending",
      "outputs": [],
      "stateMutability": "nonpayable",
      "type": "function"
    },
    {
      "inputs": [
        {
          "internalType": "string",
          "name": "name",
          "type": "string"
        },
        {
          "internalType": "address",
          "name": "tokenAddress",
          "type": "address"
        },
        {
          "internalType": "uint256",
          "name": "LTV",
          "type": "uint256"
        },
        {
          "internalType": "uint256",
          "name": "borrowStableRate",
          "type": "uint256"
        }
      ],
      "name": "addTokensForBorrowing",
      "outputs": [],
      "stateMutability": "nonpayable",
      "type": "function"
    },
    {
      "inputs": [
        {
          "internalType": "address",
          "name": "tokenAddress",
          "type": "address"
        },
        {
          "internalType": "address",
          "name": "tokenToUsdPriceFeed",
          "type": "address"
        }
      ],
      "name": "addTokenToPriceFeedMapping",
      "outputs": [],
      "stateMutability": "nonpayable",
      "type": "function"
    },
    {
      "inputs": [],
      "name": "getLendersArray",
      "outputs": [
        {
          "internalType": "address[]",
          "name": "",
          "type": "address[]"
        }
      ],
      "stateMutability": "view",
      "type": "function",
      "constant": true
    },
    {
      "inputs": [],
      "name": "getBorrowersArray",
      "outputs": [
        {
          "internalType": "address[]",
          "name": "",
          "type": "address[]"
        }
      ],
      "stateMutability": "view",
      "type": "function",
      "constant": true
    },
    {
      "inputs": [],
      "name": "getTokensForLendingArray",
      "outputs": [
        {
          "components": [
            {
              "internalType": "address",
              "name": "tokenAddress",
              "type": "address"
            },
            {
              "internalType": "uint256",
              "name": "LTV",
              "type": "uint256"
            },
            {
              "internalType": "uint256",
              "name": "stableRate",
              "type": "uint256"
            },
            {
              "internalType": "string",
              "name": "name",
              "type": "string"
            }
          ],
          "internalType": "struct LendingAndBorrowing.Token[]",
          "name": "",
          "type": "tuple[]"
        }
      ],
      "stateMutability": "view",
      "type": "function",
      "constant": true
    },
    {
      "inputs": [],
      "name": "getTokensForBorrowingArray",
      "outputs": [
        {
          "components": [
            {
              "internalType": "address",
              "name": "tokenAddress",
              "type": "address"
            },
            {
              "internalType": "uint256",
              "name": "LTV",
              "type": "uint256"
            },
            {
              "internalType": "uint256",
              "name": "stableRate",
              "type": "uint256"
            },
            {
              "internalType": "string",
              "name": "name",
              "type": "string"
            }
          ],
          "internalType": "struct LendingAndBorrowing.Token[]",
          "name": "",
          "type": "tuple[]"
        }
      ],
      "stateMutability": "view",
      "type": "function",
      "constant": true
    },
    {
      "inputs": [
        {
          "internalType": "address",
          "name": "tokenAddress",
          "type": "address"
        },
        {
          "internalType": "uint256",
          "name": "amount",
          "type": "uint256"
        }
      ],
      "name": "lend",
      "outputs": [],
      "stateMutability": "payable",
      "type": "function",
      "payable": true
    },
    {
      "inputs": [
        {
          "internalType": "uint256",
          "name": "amount",
          "type": "uint256"
        },
        {
          "internalType": "address",
          "name": "tokenAddress",
          "type": "address"
        }
      ],
      "name": "borrow",
      "outputs": [],
      "stateMutability": "nonpayable",
      "type": "function"
    },
    {
      "inputs": [
        {
          "internalType": "address",
          "name": "tokenAddress",
          "type": "address"
        },
        {
          "internalType": "uint256",
          "name": "amount",
          "type": "uint256"
        }
      ],
      "name": "payDebt",
      "outputs": [],
      "stateMutability": "nonpayable",
      "type": "function"
    },
    {
      "inputs": [
        {
          "internalType": "address",
          "name": "tokenAddress",
          "type": "address"
        },
        {
          "internalType": "uint256",
          "name": "amount",
          "type": "uint256"
        }
      ],
      "name": "withdraw",
      "outputs": [],
      "stateMutability": "nonpayable",
      "type": "function"
    },
    {
      "inputs": [
        {
          "internalType": "address",
          "name": "user",
          "type": "address"
        }
      ],
      "name": "getTokenAvailableToWithdraw",
      "outputs": [
        {
          "internalType": "uint256",
          "name": "",
          "type": "uint256"
        }
      ],
      "stateMutability": "view",
      "type": "function",
      "constant": true
    },
    {
      "inputs": [
        {
          "internalType": "address",
          "name": "user",
          "type": "address"
        }
      ],
      "name": "getRemainingCollateral",
      "outputs": [
        {
          "internalType": "uint256",
          "name": "",
          "type": "uint256"
        }
      ],
      "stateMutability": "view",
      "type": "function",
      "constant": true
    },
    {
      "inputs": [
        {
          "internalType": "address",
          "name": "user",
          "type": "address"
        }
      ],
      "name": "getTotalAmountBorrowedInDollars",
      "outputs": [
        {
          "internalType": "uint256",
          "name": "",
          "type": "uint256"
        }
      ],
      "stateMutability": "view",
      "type": "function",
      "constant": true
    },
    {
      "inputs": [
        {
          "internalType": "address",
          "name": "user",
          "type": "address"
        }
      ],
      "name": "getTotalAmountLentInDollars",
      "outputs": [
        {
          "internalType": "uint256",
          "name": "",
          "type": "uint256"
        }
      ],
      "stateMutability": "view",
      "type": "function",
      "constant": true
    },
    {
      "inputs": [
        {
          "internalType": "address",
          "name": "tokenAddress",
          "type": "address"
        },
        {
          "internalType": "uint256",
          "name": "tokenBorrowed",
          "type": "uint256"
        }
      ],
      "name": "interest",
      "outputs": [
        {
          "internalType": "uint256",
          "name": "",
          "type": "uint256"
        }
      ],
      "stateMutability": "view",
      "type": "function",
      "constant": true
    },
    {
      "inputs": [
        {
          "internalType": "address",
          "name": "tokenAddress",
          "type": "address"
        }
      ],
      "name": "getTokenFrom",
      "outputs": [
        {
          "components": [
            {
              "internalType": "address",
              "name": "tokenAddress",
              "type": "address"
            },
            {
              "internalType": "uint256",
              "name": "LTV",
              "type": "uint256"
            },
            {
              "internalType": "uint256",
              "name": "stableRate",
              "type": "uint256"
            },
            {
              "internalType": "string",
              "name": "name",
              "type": "string"
            }
          ],
          "internalType": "struct LendingAndBorrowing.Token",
          "name": "",
          "type": "tuple"
        }
      ],
      "stateMutability": "view",
      "type": "function",
      "constant": true
    },
    {
      "inputs": [
        {
          "internalType": "address",
          "name": "user",
          "type": "address"
        }
      ],
      "name": "getUserTotalAmountAvailableForBorrowInDollars",
      "outputs": [
        {
          "internalType": "uint256",
          "name": "",
          "type": "uint256"
        }
      ],
      "stateMutability": "view",
      "type": "function",
      "constant": true
    },
    {
      "inputs": [
        {
          "internalType": "uint256",
          "name": "amount",
          "type": "uint256"
        },
        {
          "internalType": "address",
          "name": "tokenAddress",
          "type": "address"
        }
      ],
      "name": "getAmountInDollars",
      "outputs": [
        {
          "internalType": "uint256",
          "name": "",
          "type": "uint256"
        }
      ],
      "stateMutability": "view",
      "type": "function",
      "constant": true
    },
    {
      "inputs": [
        {
          "internalType": "address",
          "name": "tokenAddress",
          "type": "address"
        }
      ],
      "name": "oneTokenEqualsHowManyDollars",
      "outputs": [
        {
          "internalType": "uint256",
          "name": "",
          "type": "uint256"
        },
        {
          "internalType": "uint256",
          "name": "",
          "type": "uint256"
        }
      ],
      "stateMutability": "view",
      "type": "function",
      "constant": true
    },
    {
      "inputs": [
        {
          "internalType": "address",
          "name": "currentUser",
          "type": "address"
        },
        {
          "internalType": "address",
          "name": "tokenAddress",
          "type": "address"
        },
        {
          "internalType": "uint256",
          "name": "noOfTokenslentOrBorrowed",
          "type": "uint256"
        },
        {
          "internalType": "string",
          "name": "_tokensLentOrBorrowed",
          "type": "string"
        }
      ],
      "name": "hasLentOrBorrowedToken",
      "outputs": [
        {
          "internalType": "bool",
          "name": "",
          "type": "bool"
        }
      ],
      "stateMutability": "view",
      "type": "function",
      "constant": true
    },
    {
      "inputs": [
        {
          "internalType": "address",
          "name": "tokenAddres",
          "type": "address"
        }
      ],
      "name": "getTotalTokenSupplied",
      "outputs": [
        {
          "internalType": "uint256",
          "name": "",
          "type": "uint256"
        }
      ],
      "stateMutability": "view",
      "type": "function",
      "constant": true
    },
    {
      "inputs": [
        {
          "internalType": "address",
          "name": "tokenAddress",
          "type": "address"
        }
      ],
      "name": "getTotalTokenBorrowed",
      "outputs": [
        {
          "internalType": "uint256",
          "name": "",
          "type": "uint256"
        }
      ],
      "stateMutability": "view",
      "type": "function",
      "constant": true
    }
  ],
  "bytecode": "0x60806040526000600b556000600c553480156200001b57600080fd5b5060405162003dcf38038062003dcf8339810160408190526200003e91620000de565b62000064620000556401000000006200008a810204565b6401000000006200008e810204565b600a8054600160a060020a031916600160a060020a039290921691909117905562000110565b3390565b60008054600160a060020a03838116600160a060020a0319831681178455604051919092169283917f8be0079c531659141344cd1fd0a4f28419497f9722a3daafe3b4186f6b6457e09190a35050565b600060208284031215620000f157600080fd5b8151600160a060020a03811681146200010957600080fd5b9392505050565b613caf80620001206000396000f3fe6080604052600436106101b85760e060020a600035046306254c6a81146101bd57806308ae7fc2146101f057806311f4f5d3146102205780631419f093146102405780631818dd0b146102605780631c9e52241461028257806327e8e184146102a45780633c9d5093146102dc578063447007fd146102fe5780634b3fd1481461031e5780634fa9f5a41461033e578063541d83381461036e5780636352b56814610384578063715018a6146103a457806374fd0ce0146103b95780637924d93f146104075780637b9ec997146104275780638078f22c146104475780638cf1806b1461047d5780638da5cb5b14610492578063929eea21146104a7578063a2fb342d146104c7578063a7772b97146104da578063a8b74152146104fa578063aac0bf9614610532578063ab56ee6614610552578063b3d16f8d14610572578063b9f09bb814610592578063c4543b67146105a8578063cd927409146105c8578063d7a9a25c14610609578063f2fde38b1461061e578063f3fef3a31461063e578063fb24af7f1461065e578063fc757b881461067e578063fdc8070e146106ab578063fe726f80146106e0578063ff2f446514610700575b600080fd5b3480156101c957600080fd5b506101dd6101d8366004613373565b610720565b6040519081526020015b60405180910390f35b3480156101fc57600080fd5b5061021061020b36600461338e565b6107b4565b6040516101e794939291906133f7565b34801561022c57600080fd5b506101dd61023b366004613425565b610886565b34801561024c57600080fd5b506101dd61025b366004613373565b6108b9565b34801561026c57600080fd5b5061028061027b366004613425565b610948565b005b34801561028e57600080fd5b50610297610c4d565b6040516101e7919061348b565b3480156102b057600080fd5b506101dd6102bf3660046134ec565b600360209081526000928352604080842090915290825290205481565b3480156102e857600080fd5b506102f1610d69565b6040516101e7919061351f565b34801561030a57600080fd5b5061021061031936600461338e565b610dcb565b34801561032a57600080fd5b5061028061033936600461356c565b610ddb565b34801561034a57600080fd5b5061035e610359366004613635565b61132c565b60405190151581526020016101e7565b34801561037a57600080fd5b506101dd600c5481565b34801561039057600080fd5b506101dd61039f366004613373565b6114bc565b3480156103b057600080fd5b5061028061150a565b3480156103c557600080fd5b506103fa6103d436600461356c565b6006602090815260009283526040808420909152908252902054600160a060020a031681565b6040516101e7919061369c565b34801561041357600080fd5b506103fa61042236600461338e565b61151e565b34801561043357600080fd5b506101dd610442366004613373565b611548565b34801561045357600080fd5b506103fa610462366004613373565b600760205260009081526040902054600160a060020a031681565b34801561048957600080fd5b506102f1611913565b34801561049e57600080fd5b506103fa611973565b3480156104b357600080fd5b506103fa6104c236600461338e565b611982565b6102806104d5366004613425565b611992565b3480156104e657600080fd5b506101dd6104f5366004613373565b611dec565b34801561050657600080fd5b506101dd6105153660046134ec565b600460209081526000928352604080842090915290825290205481565b34801561053e57600080fd5b506101dd61054d366004613373565b611e95565b34801561055e57600080fd5b506101dd61056d366004613373565b611f4e565b34801561057e57600080fd5b5061028061058d3660046134ec565b611fda565b34801561059e57600080fd5b506101dd600b5481565b3480156105b457600080fd5b506102806105c33660046136b0565b612010565b3480156105d457600080fd5b506103fa6105e336600461356c565b6005602090815260009283526040808420909152908252902054600160a060020a031681565b34801561061557600080fd5b50610297612251565b34801561062a57600080fd5b50610280610639366004613373565b612364565b34801561064a57600080fd5b50610280610659366004613425565b6123e3565b34801561066a57600080fd5b506101dd61067936600461356c565b6128ca565b34801561068a57600080fd5b5061069e610699366004613373565b612908565b6040516101e7919061370c565b3480156106b757600080fd5b506106cb6106c6366004613373565b612a7b565b604080519283526020830191909152016101e7565b3480156106ec57600080fd5b50600a546103fa90600160a060020a031681565b34801561070c57600080fd5b5061028061071b3660046136b0565b612b82565b6001546000908190156107ae5760005b6001548110156107ac57600160a060020a038416600090815260036020526040812060018054919291849081106107695761076961371f565b6000918252602080832090910154600160a060020a031683528201929092526040019020546107989083613753565b9150806107a481613766565b915050610730565b505b92915050565b600881815481106107c457600080fd5b60009182526020909120600490910201805460018201546002830154600384018054600160a060020a039094169550919390929091906108039061377f565b80601f016020809104026020016040519081016040528092919081815260200182805461082f9061377f565b801561087c5780601f106108515761010080835404028352916020019161087c565b820191906000526020600020905b81548152906001019060200180831161085f57829003601f168201915b5050505050905084565b6000670de0b6b3a764000061089a84612908565b604001516108a890846137bd565b6108b291906137d4565b9392505050565b600080805b600c548110156107ac576000818152600660209081526040808320600160a060020a03808916855292529091205416801561093557600160a060020a03808216600090815260046020908152604080832093891683529290529081205461092590836128ca565b90506109318185613753565b9350505b508061094081613766565b9150506108be565b6000811161095557600080fd5b60006109be60028054806020026020016040519081016040528092919081815260200182805480156109b057602002820191906000526020600020905b8154600160a060020a03168152600190910190602001808311610992575b503394935050612daf915050565b90507ffd17bd4279d0fe7ef2675b6b6e8966ee4b2dbdc635a963c22487d11f2252fd2633826040516109f19291906137fa565b60405180910390a16000811215610a0757600080fd5b600160a060020a0383166000908152600460209081526040808320338085529252918290205491517f39c49093e2def1aebe4cebf2fbebfd37c089d9231d17ecd15319230e499d735891610a5c9184906137fa565b60405180910390a160008111610a7157600080fd5b83600160a060020a0381166323b872dd3330610a8d8587610886565b610a979089613753565b6040518463ffffffff1660e060020a028152600401610ab893929190613813565b6020604051808303816000875af1158015610ad7573d6000803e3d6000fd5b505050506040513d601f19601f82011682018060405250810190610afb9190613837565b50600160a060020a038516600090815260046020908152604080832033845290915281208054869290610b2f908490613859565b90915550610b3e9050336108b9565b600003610bf35760028054610b5590600190613859565b81548110610b6557610b6561371f565b60009182526020909120015460028054600160a060020a039092169185908110610b9157610b9161371f565b9060005260206000200160006101000a815481600160a060020a030219169083600160a060020a031602179055506002805480610bd057610bd061386c565b60008281526020902081016000199081018054600160a060020a03191690550190555b7ff17f5805b2095d17ffe834aff3fc2eeff114bfbc250e98f248783f8d34d40042338484610c218987610886565b610c2b9089613753565b6002604051610c3e9594939291906138cf565b60405180910390a15050505050565b60606008805480602002602001604051908101604052809291908181526020016000905b82821015610d6057600084815260209081902060408051608081018252600486029092018054600160a060020a03168352600181015493830193909352600283015490820152600382018054919291606084019190610ccf9061377f565b80601f0160208091040260200160405190810160405280929190818152602001828054610cfb9061377f565b8015610d485780601f10610d1d57610100808354040283529160200191610d48565b820191906000526020600020905b815481529060010190602001808311610d2b57829003601f168201915b50505050508152505081526020019060010190610c71565b50505050905090565b60606001805480602002602001604051908101604052809291908181526020018280548015610dc157602002820191906000526020600020905b8154600160a060020a03168152600190910190602001808311610da3575b5050505050905090565b600981815481106107c457600080fd5b610ef9816009805480602002602001604051908101604052809291908181526020016000905b82821015610ef057600084815260209081902060408051608081018252600486029092018054600160a060020a03168352600181015493830193909352600283015490820152600382018054919291606084019190610e5f9061377f565b80601f0160208091040260200160405190810160405280929190818152602001828054610e8b9061377f565b8015610ed85780601f10610ead57610100808354040283529160200191610ed8565b820191906000526020600020905b815481529060010190602001808311610ebb57829003601f168201915b50505050508152505081526020019060010190610e01565b50505050612e12565b610f0257600080fd5b60008211610f0f57600080fd5b6000610f1a33611548565b90506000610f2884846128ca565b90507f9855d8af0b8c5c7af990f62dff1fc3aeaded940bb30b8de4b0015eab8bcc7dde338284604051610f5d9392919061390e565b60405180910390a181811115610f7257600080fd5b60405160e060020a6370a0823102815283907f1533b7359743566892d312c1ebe1047dfae70511d2db64634f80e3e8e2147354903390600160a060020a038416906370a0823190610fc790309060040161369c565b602060405180830381865afa158015610fe4573d6000803e3d6000fd5b505050506040513d601f19601f82011682018060405250810190611008919061392f565b876040516110189392919061390e565b60405180910390a160405160e060020a6370a082310281528590600160a060020a038316906370a082319061105190309060040161369c565b602060405180830381865afa15801561106e573d6000803e3d6000fd5b505050506040513d601f19601f82011682018060405250810190611092919061392f565b10156110e05760405160e560020a62461bcd0281526020600482015260126024820152607160020a7124b739bab33334b1b4b2b73a102a37b5b2b70260448201526064015b60405180910390fd5b60405160e060020a63a9059cbb028152600160a060020a0382169063a9059cbb9061111190339089906004016137fa565b6020604051808303816000875af1158015611130573d6000803e3d6000fd5b505050506040513d601f19601f820116820180604052508101906111549190613837565b506000806111bf60028054806020026020016040519081016040528092919081815260200182805480156111b157602002820191906000526020600020905b8154600160a060020a03168152600190910190602001808311611193575b503394935050612e85915050565b9150915081156111fe576111f986888360405180604001604052806009815260200160b860020a68626f72726f7765727302815250612eff565b6112bb565b60028054600181019091557f405787fa12a823e0f2b7631cc41b3ba8828b3321ca811111fa75cd3aa3bb5ace018054600160a060020a03191633908117909155600160a060020a0387166000908152600460209081526040808320938352929052908120889055600c805488926006929091908261127b83613766565b9091555081526020808201929092526040908101600090812033825290925290208054600160a060020a031916600160a060020a03929092169190911790555b600160a060020a0386166000908152600460209081526040808320338085529252918290205491517f699548a5535b752f15032eb2be1672b2e5e62ddc5d461d4edb5a9321d7cbd2529261131b929188918a918891889160029190613948565b60405180910390a150505050505050565b600082156114b05760405160b260020a691d1bdad95b9cd3195b9d026020820152602a0160405160208183030381529060405280519060200120826040516020016113779190613998565b60405160208183030381529060405280519060200120036113f25760005b600b548110156113ec576000818152600560209081526040808320600160a060020a03808b168552925290912054811690861681036113d9576001925050506114b4565b50806113e481613766565b915050611395565b506114b0565b604051609260020a6d1d1bdad95b9cd09bdc9c9bddd959026020820152602e0160405160208183030381529060405280519060200120826040516020016114399190613998565b60405160208183030381529060405280519060200120036114b05760005b600c548110156114ae576000818152600660209081526040808320600160a060020a03808b1685529252909120548116908616810361149b576001925050506114b4565b50806114a681613766565b915050611457565b505b5060005b949350505050565b6000806114c8836108b9565b9050600081156114e2576114db84611e95565b90506114ee565b6114eb84611dec565b90505b81811015611500575060009392505050565b6114b48282613859565b611512613208565b61151c600061326a565b565b6002818154811061152e57600080fd5b600091825260209091200154600160a060020a0316905081565b60008080805b60015481101561173d5760006001828154811061156d5761156d61371f565b600091825260209091200154600160a060020a0390811691508616810361172a5760005b600854811015611728576000600882815481106115b0576115b061371f565b90600052602060002090600402016040518060800160405290816000820160009054906101000a9004600160a060020a0316600160a060020a0316600160a060020a03168152602001600182015481526020016002820154815260200160038201805461161c9061377f565b80601f01602080910402602001604051908101604052809291908181526020018280546116489061377f565b80156116955780601f1061166a57610100808354040283529160200191611695565b820191906000526020600020905b81548152906001019060200180831161167857829003601f168201915b5050509190925250508151600160a060020a039081166000908152600360209081526040808320938e168352929052908120548351939450929091506116dc9083906128ca565b90506000670de0b6b3a76400008460200151836116f991906137bd565b61170391906137d4565b905061170f818a613753565b985050505050808061172090613766565b915050611591565b505b508061173581613766565b91505061154e565b5060005b600254811015611908576000600282815481106117605761176061371f565b600091825260209091200154600160a060020a039081169150861681036118f55760005b6009548110156118f3576000600982815481106117a3576117a361371f565b90600052602060002090600402016040518060800160405290816000820160009054906101000a9004600160a060020a0316600160a060020a0316600160a060020a03168152602001600182015481526020016002820154815260200160038201805461180f9061377f565b80601f016020809104026020016040519081016040528092919081815260200182805461183b9061377f565b80156118885780601f1061185d57610100808354040283529160200191611888565b820191906000526020600020905b81548152906001019060200180831161186b57829003601f168201915b5050509190925250508151600160a060020a039081166000908152600460209081526040808320938e168352929052908120548351939450929091506118cf9083906128ca565b90506118db8188613753565b965050505080806118eb90613766565b915050611784565b505b508061190081613766565b915050611741565b506114b48183613859565b60606002805480602002602001604051908101604052809291908181526020018280548015610dc157602002820191906000526020600020908154600160a060020a03168152600190910190602001808311610da3575050505050905090565b600054600160a060020a031690565b6001818154811061152e57600080fd5b611aa7826008805480602002602001604051908101604052809291908181526020016000905b82821015610ef057600084815260209081902060408051608081018252600486029092018054600160a060020a03168352600181015493830193909352600283015490820152600382018054919291606084019190611a169061377f565b80601f0160208091040260200160405190810160405280929190818152602001828054611a429061377f565b8015611a8f5780601f10611a6457610100808354040283529160200191611a8f565b820191906000526020600020905b815481529060010190602001808311611a7257829003601f168201915b505050505081525050815260200190600101906119b8565b611ab057600080fd5b60008111611abd57600080fd5b60405160e060020a6370a0823102815282908290600160a060020a038316906370a0823190611af090339060040161369c565b602060405180830381865afa158015611b0d573d6000803e3d6000fd5b505050506040513d601f19601f82011682018060405250810190611b31919061392f565b1015611b3c57600080fd5b60405160e060020a6323b872dd028152600160a060020a038216906323b872dd90611b6f90339030908790600401613813565b6020604051808303816000875af1158015611b8e573d6000803e3d6000fd5b505050506040513d601f19601f82011682018060405250810190611bb29190613837565b50600080611c1b60018054806020026020016040519081016040528092919081815260200182805480156111b157602002820191906000526020600020908154600160a060020a0316815260019091019060200180831161119357503394935050612e85915050565b915091508115611c5857611c5385858360405180604001604052806007815260200160c860020a666c656e6465727302815250612eff565b611d14565b600180548082019091557fb10e2d527612073b26eecdfd717e6a320cf44b4afac2b0732d9fcbe2b7fa0cf6018054600160a060020a03191633908117909155600160a060020a0386166000908152600360209081526040808320938352929052908120859055600b8054879260059290919082611cd483613766565b9091555081526020808201929092526040908101600090812033825290925290208054600160a060020a031916600160a060020a03929092169190911790555b600a54600160a060020a031663a9059cbb33611d3087896128ca565b6040518363ffffffff1660e060020a028152600401611d509291906137fa565b6020604051808303816000875af1158015611d6f573d6000803e3d6000fd5b505050506040513d601f19601f82011682018060405250810190611d939190613837565b50600160a060020a0385166000908152600360209081526040808320338085529252918290205491517fbb33ffe04605a99e7885b3013bcc050161d1906b3611f09fed70a0c61e1f03de92610c3e9291600191906139b4565b600080805b600b548110156107ac576000818152600560209081526040808320600160a060020a0380891685529252909120541615611e83576000818152600560209081526040808320600160a060020a038881168086528285528386205490911680865260038552838620918652908452918420549252909190611e729083906128ca565b9050611e7e8185613753565b935050505b80611e8d81613766565b915050611df1565b600080805b600b548110156107ac576000818152600560209081526040808320600160a060020a038089168552925290912054168015611f3b57600160a060020a038082166000908152600360209081526040808320938916835292905290812054611f0190836128ca565b9050670de0b6b3a7640000611f1583612908565b60200151611f2390836137bd565b611f2d91906137d4565b611f379085613753565b9350505b5080611f4681613766565b915050611e9a565b6002546000908190156107ae5760005b6002548110156107ac57600160a060020a03841660009081526004602052604081206002805491929184908110611f9757611f9761371f565b6000918252602080832090910154600160a060020a03168352820192909252604001902054611fc69083613753565b915080611fd281613766565b915050611f5e565b611fe2613208565b600160a060020a0391821660009081526007602052604090208054600160a060020a03191691909216179055565b612018613208565b6000604051806080016040528085600160a060020a03168152602001848152602001838152602001868152509050612164816008805480602002602001604051908101604052809291908181526020016000905b8282101561215b57600084815260209081902060408051608081018252600486029092018054600160a060020a031683526001810154938301939093526002830154908201526003820180549192916060840191906120ca9061377f565b80601f01602080910402602001604051908101604052809291908181526020018280546120f69061377f565b80156121435780601f1061211857610100808354040283529160200191612143565b820191906000526020600020905b81548152906001019060200180831161212657829003601f168201915b5050505050815250508152602001906001019061206c565b505050506132ba565b61224a576008805460018101825560009190915281517ff3f7a9fe364faab93b216da50a3214154f22a0a2b415b23a84c8169e8b636ee360049092029182018054600160a060020a031916600160a060020a0390921691909117815560208301517ff3f7a9fe364faab93b216da50a3214154f22a0a2b415b23a84c8169e8b636ee483015560408301517ff3f7a9fe364faab93b216da50a3214154f22a0a2b415b23a84c8169e8b636ee5830155606083015183927ff3f7a9fe364faab93b216da50a3214154f22a0a2b415b23a84c8169e8b636ee601906122469082613a37565b5050505b5050505050565b60606009805480602002602001604051908101604052809291908181526020016000905b82821015610d6057600084815260209081902060408051608081018252600486029092018054600160a060020a031683526001810154938301939093526002830154908201526003820180549192916060840191906122d39061377f565b80601f01602080910402602001604051908101604052809291908181526020018280546122ff9061377f565b801561234c5780601f106123215761010080835404028352916020019161234c565b820191906000526020600020905b81548152906001019060200180831161232f57829003601f168201915b50505050508152505081526020019060010190612275565b61236c613208565b600160a060020a0381166123d75760405160e560020a62461bcd02815260206004820152602660248201527f4f776e61626c653a206e6577206f776e657220697320746865207a65726f2061604482015260d060020a656464726573730260648201526084016110d7565b6123e08161326a565b50565b600081116123f057600080fd5b600061245760018054806020026020016040519081016040528092919081815260200182805480156109b057602002820191906000526020600020908154600160a060020a0316815260019091019060200180831161099257503394935050612daf915050565b121561246257600080fd5b81600061246f83836128ca565b9050600061247c336114bc565b9050600061248986610720565b9050600061249687611f4e565b90506124a28183613859565b8611156124ae57600080fd5b7fa3f1253c66c67d41b745dd1caff0e52d3fb3aefdf8dd746b6af0c96d1f29e3bc3385856040516124e19392919061390e565b60405180910390a1828411156124f657600080fd5b600061250287896128ca565b600a5460405160e060020a6370a08231028152919250600091600160a060020a03909116906370a082319061253b90339060040161369c565b602060405180830381865afa158015612558573d6000803e3d6000fd5b505050506040513d601f19601f8201168201806040525081019061257c919061392f565b905080821161260557600a5460405160e060020a6323b872dd028152600160a060020a03909116906323b872dd906125bc90339030908790600401613813565b6020604051808303816000875af11580156125db573d6000803e3d6000fd5b505050506040513d601f19601f820116820180604052508101906125ff9190613837565b50612681565b600a5460405160e060020a6323b872dd028152600160a060020a03909116906323b872dd9061263c90339030908690600401613813565b6020604051808303816000875af115801561265b573d6000803e3d6000fd5b505050506040513d601f19601f8201168201806040525081019061267f9190613837565b505b60405160e060020a63a9059cbb028152600160a060020a0388169063a9059cbb906126b29033908c906004016137fa565b6020604051808303816000875af11580156126d1573d6000803e3d6000fd5b505050506040513d601f19601f820116820180604052508101906126f59190613837565b50600160a060020a0389166000908152600360209081526040808320338452909152812080548a9290612729908490613859565b909155507fb7ee00edafdb5db3a1b52a5789a6b562eb48268842d113dbfe860b6f86e5f59590503389888861275d84611dec565b60408051600160a060020a0390961686526020860194909452928401919091526060830152608082015260a0810184905260c00160405180910390a160006127a433611dec565b116128bf57600180546127b8908290613859565b815481106127c8576127c861371f565b9060005260206000200160009054906101000a9004600160a060020a0316600161284d60018054806020026020016040519081016040528092919081815260200182805480156109b057602002820191906000526020600020908154600160a060020a0316815260019091019060200180831161099257503394935050612daf915050565b8154811061285d5761285d61371f565b9060005260206000200160006101000a815481600160a060020a030219169083600160a060020a03160217905550600180548061289c5761289c61386c565b60008281526020902081016000199081018054600160a060020a03191690550190555b505050505050505050565b60008060006128d884612a7b565b909250905060006128ea82600a613be3565b6128f484886137bd565b6128fe91906137d4565b9695505050505050565b612910613326565b612918613326565b60005b6009548110156107ac5783600160a060020a0316600982815481106129425761294261371f565b6000918252602090912060049091020154600160a060020a031603612a6957600981815481106129745761297461371f565b90600052602060002090600402016040518060800160405290816000820160009054906101000a9004600160a060020a0316600160a060020a0316600160a060020a0316815260200160018201548152602001600282015481526020016003820180546129e09061377f565b80601f0160208091040260200160405190810160405280929190818152602001828054612a0c9061377f565b8015612a595780601f10612a2e57610100808354040283529160200191612a59565b820191906000526020600020905b815481529060010190602001808311612a3c57829003601f168201915b50505050508152505091506107ac565b80612a7381613766565b91505061291b565b600160a060020a0380821660009081526007602052604080822054815160e260020a633fabe5a302815291519293849391169182918491839163feaf968c9160048082019260a0929091908290030181865afa158015612adf573d6000803e3d6000fd5b505050506040513d601f19601f82011682018060405250810190612b039190613c06565b505050915050600082600160a060020a031663313ce5676040518163ffffffff1660e060020a028152600401602060405180830381865afa158015612b4c573d6000803e3d6000fd5b505050506040513d601f19601f82011682018060405250810190612b709190613c56565b919760ff909216965090945050505050565b612b8a613208565b6000604051806080016040528085600160a060020a03168152602001848152602001838152602001868152509050612ccd816009805480602002602001604051908101604052809291908181526020016000905b8282101561215b57600084815260209081902060408051608081018252600486029092018054600160a060020a03168352600181015493830193909352600283015490820152600382018054919291606084019190612c3c9061377f565b80601f0160208091040260200160405190810160405280929190818152602001828054612c689061377f565b8015612cb55780601f10612c8a57610100808354040283529160200191612cb5565b820191906000526020600020905b815481529060010190602001808311612c9857829003601f168201915b50505050508152505081526020019060010190612bde565b61224a576009805460018101825560009190915281517f6e1540171b6c0c960b71a7020d9f60077f6af931a8bbf590da0223dacf75c7af60049092029182018054600160a060020a031916600160a060020a0390921691909117815560208301517f6e1540171b6c0c960b71a7020d9f60077f6af931a8bbf590da0223dacf75c7b083015560408301517f6e1540171b6c0c960b71a7020d9f60077f6af931a8bbf590da0223dacf75c7b1830155606083015183927f6e1540171b6c0c960b71a7020d9f60077f6af931a8bbf590da0223dacf75c7b201906122469082613a37565b6000805b8251811015612e0757828181518110612dce57612dce61371f565b6020026020010151600160a060020a031684600160a060020a031603612df55790506107ae565b80612dff81613766565b915050612db3565b506000199392505050565b805160009015612e7c5760005b8251811015612e7a5783600160a060020a0316838281518110612e4457612e4461371f565b602002602001015160000151600160a060020a031603612e685760019150506107ae565b80612e7281613766565b915050612e1f565b505b50600092915050565b600080600083511115612eef5760005b8351811015612eed57838181518110612eb057612eb061371f565b6020026020010151600160a060020a031685600160a060020a031603612edb57600192509050612ef8565b80612ee581613766565b915050612e95565b505b50600090506000195b9250929050565b60405160c860020a666c656e646572730260208201526027016040516020818303038152906040528051906020012081604051602001612f3f9190613998565b604051602081830303815290604052805190602001200361308157600060018381548110612f6f57612f6f61371f565b9060005260206000200160009054906101000a9004600160a060020a03169050612fc28186600b546040518060400160405280600a815260200160b260020a691d1bdad95b9cd3195b9d0281525061132c565b1561300957600160a060020a03808616600090815260036020908152604080832093851683529290529081208054869290612ffe908490613753565b9091555061307b9050565b600b805486916005916000918261301f83613766565b90915550815260208082019290925260409081016000908120600160a060020a038681168084529185528383208054600160a060020a031916968216969096179095559389168152600383528181209381529290915290208490555b50613202565b60405160b860020a68626f72726f7765727302602082015260290160405160208183030381529060405280519060200120816040516020016130c39190613998565b6040516020818303038152906040528051906020012003613202576000600283815481106130f3576130f361371f565b9060005260206000200160009054906101000a9004600160a060020a0316905061314a8186600c546040518060400160405280600e8152602001609260020a6d1d1bdad95b9cd09bdc9c9bddd9590281525061132c565b1561319157600160a060020a03808616600090815260046020908152604080832093851683529290529081208054869290613186908490613753565b9091555061224a9050565b600c80548691600691600091826131a783613766565b90915550815260208082019290925260409081016000908120600160a060020a039586168083529084528282208054600160a060020a0319169587169590951790945593881684526004825280842092845291905290208390555b50505050565b33613211611973565b600160a060020a03161461151c5760405160e560020a62461bcd02815260206004820181905260248201527f4f776e61626c653a2063616c6c6572206973206e6f7420746865206f776e657260448201526064016110d7565b60008054600160a060020a03838116600160a060020a0319831681178455604051919092169283917f8be0079c531659141344cd1fd0a4f28419497f9722a3daafe3b4186f6b6457e09190a35050565b805160009015612e7c5760005b8251811015612e7a578360000151600160a060020a03168382815181106132f0576132f061371f565b602002602001015160000151600160a060020a0316036133145760019150506107ae565b8061331e81613766565b9150506132c7565b60405180608001604052806000600160a060020a031681526020016000815260200160008152602001606081525090565b8035600160a060020a038116811461336e57600080fd5b919050565b60006020828403121561338557600080fd5b6108b282613357565b6000602082840312156133a057600080fd5b5035919050565b60005b838110156133c25781810151838201526020016133aa565b50506000910152565b600081518084526133e38160208601602086016133a7565b601f01601f19169290920160200192915050565b600160a060020a03851681528360208201528260408201526080606082015260006128fe60808301846133cb565b6000806040838503121561343857600080fd5b61344183613357565b946020939093013593505050565b600160a060020a038151168252602081015160208301526040810151604083015260006060820151608060608501526114b460808501826133cb565b600060208083018184528085518083526040860191506040848202870101925083870160005b828110156134df57603f198886030184526134cd85835161344f565b945092850192908501906001016134b1565b5092979650505050505050565b600080604083850312156134ff57600080fd5b61350883613357565b915061351660208401613357565b90509250929050565b6020808252825182820181905260009190848201906040850190845b81811015613560578351600160a060020a03168352928401929184019160010161353b565b50909695505050505050565b6000806040838503121561357f57600080fd5b8235915061351660208401613357565b60e060020a634e487b710260009081526041600452602490fd5b600082601f8301126135ba57600080fd5b81356001604060020a03808211156135d4576135d461358f565b604051601f8301601f19908116603f011681019082821181831017156135fc576135fc61358f565b8160405283815286602085880101111561361557600080fd5b836020870160208301376000602085830101528094505050505092915050565b6000806000806080858703121561364b57600080fd5b61365485613357565b935061366260208601613357565b92506040850135915060608501356001604060020a0381111561368457600080fd5b613690878288016135a9565b91505092959194509250565b600160a060020a0391909116815260200190565b600080600080608085870312156136c657600080fd5b84356001604060020a038111156136dc57600080fd5b6136e8878288016135a9565b9450506136f760208601613357565b93969395505050506040820135916060013590565b6020815260006108b2602083018461344f565b60e060020a634e487b710260009081526032600452602490fd5b60e060020a634e487b710260009081526011600452602490fd5b808201808211156107ae576107ae613739565b60006001820161377857613778613739565b5060010190565b60028104600182168061379357607f821691505b6020821081036137b75760e060020a634e487b710260009081526022600452602490fd5b50919050565b80820281158282048414176107ae576107ae613739565b6000826137f55760e060020a634e487b710260009081526012600452602490fd5b500490565b600160a060020a03929092168252602082015260400190565b600160a060020a039384168152919092166020820152604081019190915260600190565b60006020828403121561384957600080fd5b815180151581146108b257600080fd5b818103818111156107ae576107ae613739565b60e060020a634e487b710260009081526031600452602490fd5b6000815480845260208085019450836000528060002060005b838110156138c4578154600160a060020a03168752958201956001918201910161389f565b509495945050505050565b600160a060020a038616815284602082015283604082015282606082015260a06080820152600061390360a0830184613886565b979650505050505050565b600160a060020a039390931683526020830191909152604082015260600190565b60006020828403121561394157600080fd5b5051919050565b600160a060020a0388168152866020820152856040820152841515606082015283608082015260e060a0820152600061398460e0830185613886565b90508260c083015298975050505050505050565b600082516139aa8184602087016133a7565b9190910192915050565b600160a060020a03841681526060602082018190526000906139d890830185613886565b9050826040830152949350505050565b601f821115613a32576000818152602081206020601f86010481016020861015613a0f5750805b6020601f860104820191505b81811015613a2e57828155600101613a1b565b5050505b505050565b81516001604060020a03811115613a5057613a5061358f565b613a6481613a5e845461377f565b846139e8565b602080601f831160018114613a9d5760008415613a815750858301515b60028086026008870290910a6000190419821617865550613a2e565b600085815260208120601f198616915b82811015613acc57888601518255948401946001909101908401613aad565b5085821015613aec57878501516008601f88160260020a60001904191681555b5050505050600202600101905550565b600181815b80851115613b39578160001904821115613b1d57613b1d613739565b80851615613b2a57918102915b60029094049390800290613b01565b509250929050565b600082613b50575060016107ae565b81613b5d575060006107ae565b8160018114613b735760028114613b7d57613b9a565b60019150506107ae565b60ff841115613b8e57613b8e613739565b8360020a9150506107ae565b5060208310610133831016604e8410600b8410161715613bbd575081810a6107ae565b613bc78383613afc565b8060001904821115613bdb57613bdb613739565b029392505050565b60006108b28383613b41565b80516001605060020a038116811461336e57600080fd5b600080600080600060a08688031215613c1e57600080fd5b613c2786613bef565b9450602086015193506040860151925060608601519150613c4a60808701613bef565b90509295509295909350565b600060208284031215613c6857600080fd5b815160ff811681146108b257600080fdfea26469706673582212208666bed76befacdebf05338266ef5e0bcb06a2cc101050995f195258d925baf564736f6c63430008110033",
  "immutableReferences": {},
  "source": "// SPDX-License-Identifier: MIT\npragma solidity >=0.4.22 <0.9.0;\nimport \"./LendingHelper.sol\";\n\ncontract LendingAndBorrowing is Ownable {\n    using LendingHelper for address;\n\n    address[] public lenders;\n    address[] public borrowers;\n\n    // {tokenAddres: {userAddr : amount}}\n    mapping(address => mapping(address => uint256)) public tokensLentAmount;\n    mapping(address => mapping(address => uint256)) public tokensBorrowedAmount;\n\n    // {noOfTokensLent[1,2,3,4]: {userAddr: tokenAddres}}\n    mapping(uint256 => mapping(address => address)) public tokensLent;\n    mapping(uint256 => mapping(address => address)) public tokensBorrowed;\n\n    mapping(address => address) public tokenToPriceFeed;\n\n    event Withdraw(\n        address sender,\n        uint256 amount,\n        uint256 tokenToWithdrawInDollars,\n        uint256 availableToWithdraw,\n        uint256 totalAmountLentInDollars,\n        uint256 larTokenToRemove\n    );\n    event PayDebt(\n        address sender,\n        int256 index,\n        uint256 tokenAmountBorrowed,\n        uint256 totalTokenAmountToCollectFromUser,\n        address[] borrowers\n    );\n    event Borrow(\n        address sender,\n        uint256 amountInDollars,\n        uint256 totalAmountAvailableForBorrowInDollars,\n        bool userPresent,\n        int256 userIndex,\n        address[] borrowers,\n        uint256 currentUserTokenBorrowedAmount\n    );\n    event Supply(address sender,address[] lenders,uint256 currentUserTokenLentAmount);\n    event WithdrawTesting(address sender,uint256 tokentoWithdrawInDollars,uint256 availableToWithdraw);\n    event BorrowTesting1(address sender,uint256 amountInDollars,uint256 totalAmountAvailableForBorrowInDollars);\n    event BorrowTesting2(address sender, uint256 balance, uint256 amount);\n    event RepayTesting1(address sender, int256 index);\n    event RepayTesting2(address sender, uint256 tokenBorrowed);\n\n    struct Token {\n        address tokenAddress;\n        uint256 LTV;\n        uint256 stableRate;\n        string name;\n    }\n\n    //Array of Struct Token [Dai, Weth, Fau, Link]\n    Token[] public tokensForLending;\n    Token[] public tokensForBorrowing;\n\n    IERC20 public larToken;\n\n    uint256 public noOfTokensLent = 0;\n    uint256 public noOfTokensBorrowed = 0;\n\n    constructor(address _token) {\n        larToken = IERC20(_token);\n    }\n\n    function addTokensForLending(\n        string memory name,\n        address tokenAddress,\n        uint256 LTV,\n        uint256 borrowStableRate\n    ) external onlyOwner {\n        Token memory token = Token(tokenAddress, LTV, borrowStableRate, name);\n\n        if (!tokenIsAlreadyThere(token,tokensForLending)) {\n            tokensForLending.push(token);\n        }\n    }\n\n    function addTokensForBorrowing(\n        string memory name,\n        address tokenAddress,\n        uint256 LTV,\n        uint256 borrowStableRate\n    ) external onlyOwner {\n        Token memory token = Token(tokenAddress, LTV, borrowStableRate, name);\n\n        if (!tokenIsAlreadyThere(token,tokensForBorrowing)) {\n            tokensForBorrowing.push(token);\n        }\n    }\n\n    function addTokenToPriceFeedMapping(address tokenAddress, address tokenToUsdPriceFeed) external onlyOwner {\n        tokenToPriceFeed[tokenAddress] = tokenToUsdPriceFeed;\n    }\n\n    function getLendersArray() public view returns (address[] memory) {\n        return lenders;\n    }\n\n    function getBorrowersArray() public view returns (address[] memory) {\n        return borrowers;\n    }\n\n    function getTokensForLendingArray() public view returns (Token[] memory) {\n        return tokensForLending;\n    }\n\n    function getTokensForBorrowingArray() public view returns (Token[] memory) {\n        return tokensForBorrowing;\n    }\n\n    function lend(address tokenAddress, uint256 amount) external payable {\n        require(tokenIsAllowed(tokenAddress, tokensForLending));\n        require(amount > 0);\n\n        IERC20 token = IERC20(tokenAddress);\n\n        require(token.balanceOf(msg.sender) >= amount);\n\n        token.transferFrom(msg.sender, address(this), amount);\n\n        (bool userPresent, int256 userIndex) = msg.sender.isUserPresentIn(lenders);\n\n        if (userPresent) {\n            updateUserTokensBorrowedOrLent(tokenAddress,amount,userIndex,\"lenders\");\n        } else {\n            lenders.push(msg.sender);\n            tokensLentAmount[tokenAddress][msg.sender] = amount;\n            tokensLent[noOfTokensLent++][msg.sender] = tokenAddress;\n        }\n\n         // Send some tokens to the user equivalent to the token amount lent.\n        larToken.transfer(msg.sender, getAmountInDollars(amount, tokenAddress));\n\n        emit Supply(msg.sender,lenders,tokensLentAmount[tokenAddress][msg.sender]);\n    }\n\n    function borrow(uint256 amount, address tokenAddress) external {\n        require(tokenIsAllowed(tokenAddress, tokensForBorrowing));\n        require(amount > 0);\n\n        uint256 totalAmountAvailableForBorrowInDollars = getUserTotalAmountAvailableForBorrowInDollars(msg.sender);\n        uint256 amountInDollars = getAmountInDollars(amount, tokenAddress);\n\n        emit BorrowTesting1(msg.sender,amountInDollars,totalAmountAvailableForBorrowInDollars);\n\n        require(amountInDollars <= totalAmountAvailableForBorrowInDollars);\n\n        IERC20 token = IERC20(tokenAddress);\n\n        emit BorrowTesting2(msg.sender, token.balanceOf(address(this)), amount);\n\n        require(token.balanceOf(address(this)) >= amount,\"Insufficient Token\");\n\n        token.transfer(msg.sender, amount);\n\n        //Library function isUserPresentIn\n        (bool userPresent, int256 userIndex) = msg.sender.isUserPresentIn(borrowers);\n\n        if (userPresent) {\n          updateUserTokensBorrowedOrLent(tokenAddress,amount,userIndex,\"borrowers\");\n        } else {\n            borrowers.push(msg.sender);\n            tokensBorrowedAmount[tokenAddress][msg.sender] = amount;\n            tokensBorrowed[noOfTokensBorrowed++][msg.sender] = tokenAddress;\n        }\n\n        emit Borrow(\n            msg.sender,\n            amountInDollars,\n            totalAmountAvailableForBorrowInDollars,\n            userPresent,\n            userIndex,\n            borrowers,\n            tokensBorrowedAmount[tokenAddress][msg.sender]\n        );\n    }\n\n    function payDebt(address tokenAddress, uint256 amount) external {\n        require(amount > 0);\n\n        int256 index = msg.sender.indexOf(borrowers);\n\n        emit RepayTesting1(msg.sender, index);\n        require(index >= 0);\n\n        uint256 tokenBorrowed = tokensBorrowedAmount[tokenAddress][msg.sender];\n\n        emit RepayTesting2(msg.sender, tokenBorrowed);\n\n        require(tokenBorrowed > 0);\n        IERC20 token = IERC20(tokenAddress);\n\n        token.transferFrom(msg.sender,address(this),amount + interest(tokenAddress, tokenBorrowed));\n\n        tokensBorrowedAmount[tokenAddress][msg.sender] -= amount;\n\n        // Checking if all total amount borrowed by a user = 0, then remove the user from borrowers list;\n        if (getTotalAmountBorrowedInDollars(msg.sender) == 0) {\n            borrowers[uint256(index)] = borrowers[borrowers.length - 1];\n            borrowers.pop();\n        }\n\n        emit PayDebt(\n            msg.sender,\n            index,\n            tokenBorrowed,\n            amount + interest(tokenAddress, tokenBorrowed),\n            borrowers\n        );\n    }\n\n    function withdraw(address tokenAddress, uint256 amount) external {\n        require(amount > 0);\n\n        require(msg.sender.indexOf(lenders) >= 0);\n\n        IERC20 token = IERC20(tokenAddress);\n\n        uint256 tokenToWithdrawInDollars = getAmountInDollars(amount,tokenAddress);\n        uint256 availableToWithdraw = getTokenAvailableToWithdraw(msg.sender);\n\n        uint totalTokenSuppliedInContract = getTotalTokenSupplied(tokenAddress);\n        uint totalTokenBorrowedInContract = getTotalTokenBorrowed(tokenAddress);\n\n        require(amount <= (totalTokenSuppliedInContract - totalTokenBorrowedInContract));\n\n        emit WithdrawTesting(msg.sender,tokenToWithdrawInDollars,availableToWithdraw);\n\n        require(tokenToWithdrawInDollars <= availableToWithdraw);\n\n        uint256 larTokenToRemove = getAmountInDollars(amount, tokenAddress);\n        uint256 larTokenBalance = larToken.balanceOf(msg.sender);\n\n        if (larTokenToRemove <= larTokenBalance) {\n            larToken.transferFrom(msg.sender, address(this), larTokenToRemove);\n        } else {\n            larToken.transferFrom(msg.sender, address(this), larTokenBalance);\n        }\n\n        token.transfer(msg.sender, amount);\n\n        tokensLentAmount[tokenAddress][msg.sender] -= amount;\n\n        emit Withdraw(\n            msg.sender,\n            amount,\n            tokenToWithdrawInDollars,\n            availableToWithdraw,\n            getTotalAmountLentInDollars(msg.sender),\n            larTokenToRemove\n        );\n\n        if (getTotalAmountLentInDollars(msg.sender) <= 0) {\n            lenders[uint256(msg.sender.indexOf(lenders))] = lenders[lenders.length - 1];\n            lenders.pop();\n        }\n    }\n\n    function getTokenAvailableToWithdraw(address user)public view returns (uint256){\n\n        uint256 totalAmountBorrowedInDollars = getTotalAmountBorrowedInDollars(user);\n\n        uint remainingCollateral = 0;\n\n        if (totalAmountBorrowedInDollars > 0 ){\n            remainingCollateral = getRemainingCollateral(user);\n        }else{\n            remainingCollateral = getTotalAmountLentInDollars(user);\n        }\n\n        if (remainingCollateral < totalAmountBorrowedInDollars){return 0;}\n\n        return remainingCollateral - totalAmountBorrowedInDollars;\n    }\n\n    function getRemainingCollateral(address user)public view returns (uint256){\n           uint256 remainingCollateral = 0;\n           for (uint256 i = 0; i < noOfTokensLent; i++)\n           {\n               address userLentTokenAddressFound = tokensLent[i][user];\n\n               if (userLentTokenAddressFound !=0x0000000000000000000000000000000000000000)\n               {\n                 uint256 tokenAmountLentInDollars = getAmountInDollars(\n                   tokensLentAmount[userLentTokenAddressFound][user],\n                   userLentTokenAddressFound);\n\n                 remainingCollateral += (tokenAmountLentInDollars * getTokenFrom(userLentTokenAddressFound).LTV) / 10 ** 18;\n               }\n           }\n           return remainingCollateral;\n       }\n\n       function getTotalAmountBorrowedInDollars(address user) public view returns (uint256){\n           uint256 totalAmountBorrowed = 0;\n\n           for (uint256 i = 0; i < noOfTokensBorrowed; i++) {\n               address userBorrowedTokenAddressFound = tokensBorrowed[i][user];\n\n               if (userBorrowedTokenAddressFound != 0x0000000000000000000000000000000000000000)\n               {\n                  ///tokenAmountBorrowed is tokensBorrowedAmount[userBorrowedTokenAddressFound][user];\n\n                   uint256 tokenAmountBorrowedInDollars = getAmountInDollars(\n                       tokensBorrowedAmount[userBorrowedTokenAddressFound][user],\n                       userBorrowedTokenAddressFound\n                   );\n\n                   totalAmountBorrowed += tokenAmountBorrowedInDollars;\n               }\n           }\n           return totalAmountBorrowed;\n       }\n\n       function getTotalAmountLentInDollars(address user) public view returns (uint256){\n           uint256 totalAmountLent = 0;\n           for (uint256 i = 0; i < noOfTokensLent; i++) {\n               if (tokensLent[i][user] !=0x0000000000000000000000000000000000000000)\n               {\n                   uint256 tokenAmountLent = tokensLentAmount[tokensLent[i][user]][user];\n\n                   uint256 tokenAmountLentInDollars = getAmountInDollars(tokenAmountLent,tokensLent[i][user]);\n\n                   totalAmountLent += tokenAmountLentInDollars;\n               }\n           }\n           return totalAmountLent;\n       }\n\n       function interest(address tokenAddress, uint256 tokenBorrowed) public view returns (uint256){\n           return (tokenBorrowed * getTokenFrom(tokenAddress).stableRate) / 10**18;\n       }\n\n       function getTokenFrom(address tokenAddress) public view returns (Token memory){\n           Token memory token;\n           for (uint256 i = 0; i < tokensForBorrowing.length; i++) {\n               if (tokensForBorrowing[i].tokenAddress == tokenAddress) {\n                   token = tokensForBorrowing[i];\n                   break;\n               }\n           }\n           return token;\n       }\n\n       function getUserTotalAmountAvailableForBorrowInDollars(address user) public view returns (uint256){\n          // uint256 totalAvailableToBorrow = 0;\n\n          uint256 userTotalCollateralToBorrow = 0;\n          uint256 userTotalCollateralAlreadyBorrowed = 0;\n\n          for (uint256 i = 0; i < lenders.length; i++) {\n              address currentLender = lenders[i];\n              if (currentLender == user) {\n                  for (uint256 j = 0; j < tokensForLending.length; j++) {\n                      Token memory currentTokenForLending = tokensForLending[j];\n                      uint256 currentTokenLentAmount = tokensLentAmount[currentTokenForLending.tokenAddress][user];\n                      uint256 currentTokenLentAmountInDollar = getAmountInDollars(\n                          currentTokenLentAmount,\n                          currentTokenForLending.tokenAddress\n                      );\n                      uint256 availableInDollar = (currentTokenLentAmountInDollar * currentTokenForLending.LTV) / 10**18;\n                      userTotalCollateralToBorrow += availableInDollar;\n                  }\n              }\n          }\n\n          for (uint256 i = 0; i < borrowers.length; i++) {\n              address currentBorrower = borrowers[i];\n              if (currentBorrower == user) {\n                  for (uint256 j = 0; j < tokensForBorrowing.length; j++) {\n                      Token memory currentTokenForBorrowing = tokensForBorrowing[j];\n                      uint256 currentTokenBorrowedAmount = tokensBorrowedAmount[currentTokenForBorrowing.tokenAddress][user];\n                      uint256 currentTokenBorrowedAmountInDollar = getAmountInDollars(\n                              (currentTokenBorrowedAmount),\n                              currentTokenForBorrowing.tokenAddress\n                          );\n\n                      userTotalCollateralAlreadyBorrowed += currentTokenBorrowedAmountInDollar;\n                  }\n              }\n          }\n\n          return userTotalCollateralToBorrow - userTotalCollateralAlreadyBorrowed;\n      }\n\n\n       function tokenIsAllowed(address tokenAddress, Token[] memory tokenArray) private pure returns (bool){\n           if (tokenArray.length > 0) {\n               for (uint256 i = 0; i < tokenArray.length; i++) {\n                   if (tokenArray[i].tokenAddress == tokenAddress) {\n                       return true;\n                   }\n               }\n           }\n           return false;\n       }\n\n       function tokenIsAlreadyThere(Token memory token, Token[] memory tokenArray) private pure returns (bool){\n           if (tokenArray.length > 0) {\n               for (uint256 i = 0; i < tokenArray.length; i++) {\n                   if (tokenArray[i].tokenAddress == token.tokenAddress) {\n                       return true;\n                   }\n               }\n           }\n           return false;\n       }\n\n       function getAmountInDollars(uint256 amount, address tokenAddress) public view returns (uint256){\n          (uint256 dollarPerToken,uint256 decimals) = oneTokenEqualsHowManyDollars(tokenAddress);\n          uint256 totalAmountInDollars = (amount * dollarPerToken) / (10**decimals);\n          return totalAmountInDollars;\n        }\n\n      function oneTokenEqualsHowManyDollars(address tokenAddress) public view returns (uint256, uint256){\n            address tokenToUsd = tokenToPriceFeed[tokenAddress];\n            AggregatorV3Interface priceFeed = AggregatorV3Interface(tokenToUsd);\n\n            (, int256 price, , , ) = priceFeed.latestRoundData();\n\n            uint256 decimals = priceFeed.decimals();\n\n            return (uint256(price), decimals);\n        }\n\n       function updateUserTokensBorrowedOrLent(\n         address tokenAddress,\n         uint256 amount,\n         int256 userIndex,\n         string memory lendersOrBorrowers)\n         private {\n           if ( keccak256(abi.encodePacked(lendersOrBorrowers)) == keccak256(abi.encodePacked(\"lenders\"))) {\n               address currentUser = lenders[uint256(userIndex)];\n\n               if (hasLentOrBorrowedToken(currentUser, tokenAddress, noOfTokensLent,\"tokensLent\")) {\n                   tokensLentAmount[tokenAddress][currentUser] += amount;\n               } else {\n                   tokensLent[noOfTokensLent++][currentUser] = tokenAddress;\n                   tokensLentAmount[tokenAddress][currentUser] = amount;\n               }\n           } else if (keccak256(abi.encodePacked(lendersOrBorrowers)) == keccak256(abi.encodePacked(\"borrowers\"))) {\n               address currentUser = borrowers[uint256(userIndex)];\n\n               if (hasLentOrBorrowedToken(currentUser,tokenAddress,noOfTokensBorrowed,\"tokensBorrowed\")) {\n                   tokensBorrowedAmount[tokenAddress][currentUser] += amount;\n               } else {\n                   tokensBorrowed[noOfTokensBorrowed++][currentUser] = tokenAddress;\n                   tokensBorrowedAmount[tokenAddress][currentUser] = amount;\n               }\n           }\n       }\n\n       function hasLentOrBorrowedToken(\n           address currentUser,\n           address tokenAddress,\n           uint256 noOfTokenslentOrBorrowed,\n           string memory _tokensLentOrBorrowed\n       ) public view returns (bool) {\n           if (noOfTokenslentOrBorrowed > 0) {\n               if (keccak256(abi.encodePacked(_tokensLentOrBorrowed)) == keccak256(abi.encodePacked(\"tokensLent\"))) {\n                   for (uint256 i = 0; i < noOfTokensLent; i++) {\n                       address tokenAddressFound = tokensLent[i][currentUser];\n                       if (tokenAddressFound == tokenAddress) {\n                           return true;\n                       }\n                   }\n               } else if (keccak256(abi.encodePacked(_tokensLentOrBorrowed)) == keccak256(abi.encodePacked(\"tokensBorrowed\"))) {\n                   for (uint256 i = 0; i < noOfTokensBorrowed; i++) {\n                       address tokenAddressFound = tokensBorrowed[i][currentUser];\n                       if (tokenAddressFound == tokenAddress) {\n                           return true;\n                       }\n                   }\n               }\n           }\n           return false;\n       }\n\n\n\n       function getTotalTokenSupplied(address tokenAddres) public view returns (uint256){\n           uint256 totalTokenSupplied = 0;\n           if (lenders.length > 0) {\n               for (uint256 i = 0; i < lenders.length; i++) {\n                   totalTokenSupplied += tokensLentAmount[tokenAddres][lenders[i]];\n               }\n           }\n\n           return totalTokenSupplied;\n       }\n\n       function getTotalTokenBorrowed(address tokenAddress) public view returns (uint256){\n           uint256 totalTokenBorrowed = 0;\n           if (borrowers.length > 0) {\n               for (uint256 i = 0; i < borrowers.length; i++) {\n                   totalTokenBorrowed += tokensBorrowedAmount[tokenAddress][borrowers[i]];\n               }\n           }\n           return totalTokenBorrowed;\n       }\n\n}\n",
  "sourcePath": "/Users/paras/Documents/lending_borrowing/contracts/LendingAndBorrowing.sol",
  "compiler": {
    "name": "solc",
    "version": "0.8.17+commit.8df45f5f.Emscripten.clang"
  },
  "schemaVersion": "3.4.7",
  "updatedAt": "2022-10-11T03:22:02.873Z",
  "networkType": "ethereum",
  "devdoc": {
    "kind": "dev",
    "methods": {
      "owner()": {
        "details": "Returns the address of the current owner."
      },
      "renounceOwnership()": {
        "details": "Leaves the contract without owner. It will not be possible to call `onlyOwner` functions anymore. Can only be called by the current owner. NOTE: Renouncing ownership will leave the contract without an owner, thereby removing any functionality that is only available to the owner."
      },
      "transferOwnership(address)": {
        "details": "Transfers ownership of the contract to a new account (`newOwner`). Can only be called by the current owner."
      }
    },
    "version": 1
  },
  "userdoc": {
    "kind": "user",
    "methods": {},
    "version": 1
  }
}