{
  "contractName": "MockV3Aggregator",
  "abi": [
    {
      "inputs": [
        {
          "internalType": "uint8",
          "name": "_decimals",
          "type": "uint8"
        },
        {
          "internalType": "int256",
          "name": "_initialAnswer",
          "type": "int256"
        }
      ],
      "stateMutability": "nonpayable",
      "type": "constructor"
    },
    {
      "anonymous": false,
      "inputs": [
        {
          "indexed": true,
          "internalType": "int256",
          "name": "current",
          "type": "int256"
        },
        {
          "indexed": true,
          "internalType": "uint256",
          "name": "roundId",
          "type": "uint256"
        },
        {
          "indexed": false,
          "internalType": "uint256",
          "name": "updatedAt",
          "type": "uint256"
        }
      ],
      "name": "AnswerUpdated",
      "type": "event"
    },
    {
      "anonymous": false,
      "inputs": [
        {
          "indexed": true,
          "internalType": "uint256",
          "name": "roundId",
          "type": "uint256"
        },
        {
          "indexed": true,
          "internalType": "address",
          "name": "startedBy",
          "type": "address"
        },
        {
          "indexed": false,
          "internalType": "uint256",
          "name": "startedAt",
          "type": "uint256"
        }
      ],
      "name": "NewRound",
      "type": "event"
    },
    {
      "inputs": [],
      "name": "decimals",
      "outputs": [
        {
          "internalType": "uint8",
          "name": "",
          "type": "uint8"
        }
      ],
      "stateMutability": "view",
      "type": "function"
    },
    {
      "inputs": [
        {
          "internalType": "uint256",
          "name": "",
          "type": "uint256"
        }
      ],
      "name": "getAnswer",
      "outputs": [
        {
          "internalType": "int256",
          "name": "",
          "type": "int256"
        }
      ],
      "stateMutability": "view",
      "type": "function"
    },
    {
      "inputs": [
        {
          "internalType": "uint256",
          "name": "",
          "type": "uint256"
        }
      ],
      "name": "getTimestamp",
      "outputs": [
        {
          "internalType": "uint256",
          "name": "",
          "type": "uint256"
        }
      ],
      "stateMutability": "view",
      "type": "function"
    },
    {
      "inputs": [],
      "name": "latestAnswer",
      "outputs": [
        {
          "internalType": "int256",
          "name": "",
          "type": "int256"
        }
      ],
      "stateMutability": "view",
      "type": "function"
    },
    {
      "inputs": [],
      "name": "latestRound",
      "outputs": [
        {
          "internalType": "uint256",
          "name": "",
          "type": "uint256"
        }
      ],
      "stateMutability": "view",
      "type": "function"
    },
    {
      "inputs": [],
      "name": "latestTimestamp",
      "outputs": [
        {
          "internalType": "uint256",
          "name": "",
          "type": "uint256"
        }
      ],
      "stateMutability": "view",
      "type": "function"
    },
    {
      "inputs": [],
      "name": "version",
      "outputs": [
        {
          "internalType": "uint256",
          "name": "",
          "type": "uint256"
        }
      ],
      "stateMutability": "view",
      "type": "function"
    },
    {
      "inputs": [
        {
          "internalType": "int256",
          "name": "_answer",
          "type": "int256"
        }
      ],
      "name": "updateAnswer",
      "outputs": [],
      "stateMutability": "nonpayable",
      "type": "function"
    },
    {
      "inputs": [
        {
          "internalType": "uint80",
          "name": "_roundId",
          "type": "uint80"
        },
        {
          "internalType": "int256",
          "name": "_answer",
          "type": "int256"
        },
        {
          "internalType": "uint256",
          "name": "_timestamp",
          "type": "uint256"
        },
        {
          "internalType": "uint256",
          "name": "_startedAt",
          "type": "uint256"
        }
      ],
      "name": "updateRoundData",
      "outputs": [],
      "stateMutability": "nonpayable",
      "type": "function"
    },
    {
      "inputs": [
        {
          "internalType": "uint80",
          "name": "_roundId",
          "type": "uint80"
        }
      ],
      "name": "getRoundData",
      "outputs": [
        {
          "internalType": "uint80",
          "name": "roundId",
          "type": "uint80"
        },
        {
          "internalType": "int256",
          "name": "answer",
          "type": "int256"
        },
        {
          "internalType": "uint256",
          "name": "startedAt",
          "type": "uint256"
        },
        {
          "internalType": "uint256",
          "name": "updatedAt",
          "type": "uint256"
        },
        {
          "internalType": "uint80",
          "name": "answeredInRound",
          "type": "uint80"
        }
      ],
      "stateMutability": "view",
      "type": "function"
    },
    {
      "inputs": [],
      "name": "latestRoundData",
      "outputs": [
        {
          "internalType": "uint80",
          "name": "roundId",
          "type": "uint80"
        },
        {
          "internalType": "int256",
          "name": "answer",
          "type": "int256"
        },
        {
          "internalType": "uint256",
          "name": "startedAt",
          "type": "uint256"
        },
        {
          "internalType": "uint256",
          "name": "updatedAt",
          "type": "uint256"
        },
        {
          "internalType": "uint80",
          "name": "answeredInRound",
          "type": "uint80"
        }
      ],
      "stateMutability": "view",
      "type": "function"
    },
    {
      "inputs": [],
      "name": "description",
      "outputs": [
        {
          "internalType": "string",
          "name": "",
          "type": "string"
        }
      ],
      "stateMutability": "view",
      "type": "function"
    }
  ],
  "bytecode": "0x60806040523480156200001157600080fd5b5060405162000b0b38038062000b0b83398181016040528101906200003791906200016a565b816000806101000a81548160ff021916908360ff1602179055506200006b8162000073640100000000026401000000009004565b505062000237565b8060018190555042600281905550600360008154809291906200009690620001ea565b919050555080600460006003548152602001908152602001600020819055504260056000600354815260200190815260200160002081905550426006600060035481526020019081526020016000208190555050565b600080fd5b600060ff82169050919050565b6200010981620000f1565b81146200011557600080fd5b50565b6000815190506200012981620000fe565b92915050565b6000819050919050565b62000144816200012f565b81146200015057600080fd5b50565b600081519050620001648162000139565b92915050565b60008060408385031215620001845762000183620000ec565b5b6000620001948582860162000118565b9250506020620001a78582860162000153565b9150509250929050565b7f4e487b7100000000000000000000000000000000000000000000000000000000600052601160045260246000fd5b6000819050919050565b6000620001f782620001e0565b91507fffffffffffffffffffffffffffffffffffffffffffffffffffffffffffffffff82036200022c576200022b620001b1565b5b600182019050919050565b6108c480620002476000396000f3fe608060405234801561001057600080fd5b50600436106100d1576000357c0100000000000000000000000000000000000000000000000000000000900480638205bf6a1161008e5780638205bf6a146101885780639a6fc8f5146101a6578063a87a20ce146101da578063b5ab58dc146101f6578063b633620c14610226578063feaf968c14610256576100d1565b8063313ce567146100d65780634aa2011f146100f457806350d25bcd1461011057806354fd4d501461012e578063668a0f021461014c5780637284e4161461016a575b600080fd5b6100de610278565b6040516100eb91906104f3565b60405180910390f35b61010e600480360381019061010991906105c1565b610289565b005b6101186102fe565b6040516101259190610637565b60405180910390f35b610136610304565b6040516101439190610661565b60405180910390f35b610154610309565b6040516101619190610661565b60405180910390f35b61017261030f565b60405161017f919061070c565b60405180910390f35b61019061034c565b60405161019d9190610661565b60405180910390f35b6101c060048036038101906101bb919061072e565b610352565b6040516101d195949392919061076a565b60405180910390f35b6101f460048036038101906101ef91906107bd565b6103cf565b005b610210600480360381019061020b91906107ea565b610446565b60405161021d9190610637565b60405180910390f35b610240600480360381019061023b91906107ea565b61045e565b60405161024d9190610661565b60405180910390f35b61025e610476565b60405161026f95949392919061076a565b60405180910390f35b60008054906101000a900460ff1681565b8369ffffffffffffffffffff16600381905550826001819055508160028190555082600460006003548152602001908152602001600020819055508160056000600354815260200190815260200160002081905550806006600060035481526020019081526020016000208190555050505050565b60015481565b600081565b60035481565b60606040518060400160405280601f81526020017f76302e362f74657374732f4d6f636b563341676772656761746f722e736f6c00815250905090565b60025481565b600080600080600085600460008869ffffffffffffffffffff16815260200190815260200160002054600660008969ffffffffffffffffffff16815260200190815260200160002054600560008a69ffffffffffffffffffff16815260200190815260200160002054899450945094509450945091939590929450565b8060018190555042600281905550600360008154809291906103f090610846565b919050555080600460006003548152602001908152602001600020819055504260056000600354815260200190815260200160002081905550426006600060035481526020019081526020016000208190555050565b60046020528060005260406000206000915090505481565b60056020528060005260406000206000915090505481565b6000806000806000600354600460006003548152602001908152602001600020546006600060035481526020019081526020016000205460056000600354815260200190815260200160002054600354945094509450945094509091929394565b600060ff82169050919050565b6104ed816104d7565b82525050565b600060208201905061050860008301846104e4565b92915050565b600080fd5b600069ffffffffffffffffffff82169050919050565b61053281610513565b811461053d57600080fd5b50565b60008135905061054f81610529565b92915050565b6000819050919050565b61056881610555565b811461057357600080fd5b50565b6000813590506105858161055f565b92915050565b6000819050919050565b61059e8161058b565b81146105a957600080fd5b50565b6000813590506105bb81610595565b92915050565b600080600080608085870312156105db576105da61050e565b5b60006105e987828801610540565b94505060206105fa87828801610576565b935050604061060b878288016105ac565b925050606061061c878288016105ac565b91505092959194509250565b61063181610555565b82525050565b600060208201905061064c6000830184610628565b92915050565b61065b8161058b565b82525050565b60006020820190506106766000830184610652565b92915050565b600081519050919050565b600082825260208201905092915050565b60005b838110156106b657808201518184015260208101905061069b565b60008484015250505050565b6000601f19601f8301169050919050565b60006106de8261067c565b6106e88185610687565b93506106f8818560208601610698565b610701816106c2565b840191505092915050565b6000602082019050818103600083015261072681846106d3565b905092915050565b6000602082840312156107445761074361050e565b5b600061075284828501610540565b91505092915050565b61076481610513565b82525050565b600060a08201905061077f600083018861075b565b61078c6020830187610628565b6107996040830186610652565b6107a66060830185610652565b6107b3608083018461075b565b9695505050505050565b6000602082840312156107d3576107d261050e565b5b60006107e184828501610576565b91505092915050565b600060208284031215610800576107ff61050e565b5b600061080e848285016105ac565b91505092915050565b7f4e487b7100000000000000000000000000000000000000000000000000000000600052601160045260246000fd5b60006108518261058b565b91507fffffffffffffffffffffffffffffffffffffffffffffffffffffffffffffffff820361088357610882610817565b5b60018201905091905056fea2646970667358221220e78dd22005b290b10899d6ffffa83f9f620419de61ff2a700c8cb05e3df746cd64736f6c63430008100033",
  "immutableReferences": {},
  "source": "// SPDX-License-Identifier: MIT\npragma solidity >=0.4.22 <0.9.0;\n\nimport \"@chainlink/contracts/src/v0.8/interfaces/AggregatorV2V3Interface.sol\";\n\n/**\n * @title MockV3Aggregator\n * @notice Based on the FluxAggregator contract\n * @notice Use this contract when you need to test\n * other contract's ability to read data from an\n * aggregator contract, but how the aggregator got\n * its answer is unimportant\n */\ncontract MockV3Aggregator is AggregatorV2V3Interface {\n  uint256 constant public override version = 0;\n\n  uint8 public override decimals;\n  int256 public override latestAnswer;\n  uint256 public override latestTimestamp;\n  uint256 public override latestRound;\n\n  mapping(uint256 => int256) public override getAnswer;\n  mapping(uint256 => uint256) public override getTimestamp;\n  mapping(uint256 => uint256) private getStartedAt;\n\n  constructor(\n    uint8 _decimals,\n    int256 _initialAnswer\n  ) public {\n    decimals = _decimals;\n    updateAnswer(_initialAnswer);\n  }\n\n  function updateAnswer(\n    int256 _answer\n  ) public {\n    latestAnswer = _answer;\n    latestTimestamp = block.timestamp;\n    latestRound++;\n    getAnswer[latestRound] = _answer;\n    getTimestamp[latestRound] = block.timestamp;\n    getStartedAt[latestRound] = block.timestamp;\n  }\n\n  function updateRoundData(\n    uint80 _roundId,\n    int256 _answer,\n    uint256 _timestamp,\n    uint256 _startedAt\n  ) public {\n    latestRound = _roundId;\n    latestAnswer = _answer;\n    latestTimestamp = _timestamp;\n    getAnswer[latestRound] = _answer;\n    getTimestamp[latestRound] = _timestamp;\n    getStartedAt[latestRound] = _startedAt;\n  }\n\n  function getRoundData(uint80 _roundId)\n    external\n    view\n    override\n    returns (\n      uint80 roundId,\n      int256 answer,\n      uint256 startedAt,\n      uint256 updatedAt,\n      uint80 answeredInRound\n    )\n  {\n    return (\n      _roundId,\n      getAnswer[_roundId],\n      getStartedAt[_roundId],\n      getTimestamp[_roundId],\n      _roundId\n    );\n  }\n\n  function latestRoundData()\n    external\n    view\n    override\n    returns (\n      uint80 roundId,\n      int256 answer,\n      uint256 startedAt,\n      uint256 updatedAt,\n      uint80 answeredInRound\n    )\n  {\n    return (\n      uint80(latestRound),\n      getAnswer[latestRound],\n      getStartedAt[latestRound],\n      getTimestamp[latestRound],\n      uint80(latestRound)\n    );\n  }\n\n  function description()\n    external\n    view\n    override\n    returns (string memory)\n  {\n    return \"v0.6/tests/MockV3Aggregator.sol\";\n  }\n}\n\n// MockOracle\n// Function signatures, event signatures, log topics",
  "sourcePath": "/Users/paras/Documents/lending_borrowing/contracts/test/MockV3Aggregator.sol",
  "compiler": {
    "name": "solc",
    "version": "0.8.16+commit.07a7930e.Emscripten.clang"
  },
  "schemaVersion": "3.4.7",
  "updatedAt": "2022-08-16T15:41:19.048Z",
  "devdoc": {
    "kind": "dev",
    "methods": {},
    "title": "MockV3Aggregator",
    "version": 1
  },
  "userdoc": {
    "kind": "user",
    "methods": {},
    "notice": "Based on the FluxAggregator contractUse this contract when you need to test other contract's ability to read data from an aggregator contract, but how the aggregator got its answer is unimportant",
    "version": 1
  }
}